{
	"contracts/SimplePetAdoption.sol": {
		"SimplePetAdoption": {
			"abi": [
				{
					"inputs": [],
					"stateMutability": "nonpayable",
					"type": "constructor"
				},
				{
					"anonymous": false,
					"inputs": [
						{
							"indexed": false,
							"internalType": "address",
							"name": "adopter",
							"type": "address"
						},
						{
							"indexed": false,
							"internalType": "uint256",
							"name": "id",
							"type": "uint256"
						}
					],
					"name": "PetAdopted",
					"type": "event"
				},
				{
					"anonymous": false,
					"inputs": [
						{
							"indexed": false,
							"internalType": "string",
							"name": "name",
							"type": "string"
						},
						{
							"indexed": false,
							"internalType": "uint256",
							"name": "id",
							"type": "uint256"
						}
					],
					"name": "PetRegistered",
					"type": "event"
				},
				{
					"anonymous": false,
					"inputs": [
						{
							"indexed": false,
							"internalType": "address",
							"name": "adopter",
							"type": "address"
						},
						{
							"indexed": false,
							"internalType": "uint256",
							"name": "id",
							"type": "uint256"
						}
					],
					"name": "PetReturned",
					"type": "event"
				},
				{
					"inputs": [
						{
							"internalType": "uint256",
							"name": "_id",
							"type": "uint256"
						}
					],
					"name": "adoptPet",
					"outputs": [],
					"stateMutability": "nonpayable",
					"type": "function"
				},
				{
					"inputs": [],
					"name": "countAdopted",
					"outputs": [
						{
							"internalType": "uint256",
							"name": "",
							"type": "uint256"
						}
					],
					"stateMutability": "view",
					"type": "function"
				},
				{
					"inputs": [],
					"name": "owner",
					"outputs": [
						{
							"internalType": "address",
							"name": "",
							"type": "address"
						}
					],
					"stateMutability": "view",
					"type": "function"
				},
				{
					"inputs": [
						{
							"internalType": "uint256",
							"name": "",
							"type": "uint256"
						}
					],
					"name": "pets",
					"outputs": [
						{
							"internalType": "string",
							"name": "name",
							"type": "string"
						},
						{
							"internalType": "address",
							"name": "adopter",
							"type": "address"
						},
						{
							"internalType": "uint256",
							"name": "timeAdopted",
							"type": "uint256"
						}
					],
					"stateMutability": "view",
					"type": "function"
				},
				{
					"inputs": [
						{
							"internalType": "string",
							"name": "_name",
							"type": "string"
						}
					],
					"name": "registerPet",
					"outputs": [],
					"stateMutability": "nonpayable",
					"type": "function"
				},
				{
					"inputs": [
						{
							"internalType": "uint256",
							"name": "_id",
							"type": "uint256"
						}
					],
					"name": "returnPet",
					"outputs": [],
					"stateMutability": "nonpayable",
					"type": "function"
				}
			],
			"devdoc": {
				"kind": "dev",
				"methods": {},
				"version": 1
			},
			"evm": {
				"assembly": "    /* \"contracts/SimplePetAdoption.sol\":60:1939  contract SimplePetAdoption {... */\n  mstore(0x40, 0x80)\n    /* \"contracts/SimplePetAdoption.sol\":403:455  constructor() {... */\n  callvalue\n  dup1\n  iszero\n  tag_1\n  jumpi\n  revert(0x00, 0x00)\ntag_1:\n  pop\n    /* \"contracts/SimplePetAdoption.sol\":436:446  msg.sender */\n  caller\n    /* \"contracts/SimplePetAdoption.sol\":428:433  owner */\n  0x01\n  0x00\n    /* \"contracts/SimplePetAdoption.sol\":428:446  owner = msg.sender */\n  0x0100\n  exp\n  dup2\n  sload\n  dup2\n  0xffffffffffffffffffffffffffffffffffffffff\n  mul\n  not\n  and\n  swap1\n  dup4\n  0xffffffffffffffffffffffffffffffffffffffff\n  and\n  mul\n  or\n  swap1\n  sstore\n  pop\n    /* \"contracts/SimplePetAdoption.sol\":60:1939  contract SimplePetAdoption {... */\n  dataSize(sub_0)\n  dup1\n  dataOffset(sub_0)\n  0x00\n  codecopy\n  0x00\n  return\nstop\n\nsub_0: assembly {\n        /* \"contracts/SimplePetAdoption.sol\":60:1939  contract SimplePetAdoption {... */\n      mstore(0x40, 0x80)\n      callvalue\n      dup1\n      iszero\n      tag_1\n      jumpi\n      revert(0x00, 0x00)\n    tag_1:\n      pop\n      jumpi(tag_2, lt(calldatasize, 0x04))\n      shr(0xe0, calldataload(0x00))\n      dup1\n      0x19b81577\n      eq\n      tag_3\n      jumpi\n      dup1\n      0x680f6522\n      eq\n      tag_4\n      jumpi\n      dup1\n      0x8da5cb5b\n      eq\n      tag_5\n      jumpi\n      dup1\n      0xbdb92e8e\n      eq\n      tag_6\n      jumpi\n      dup1\n      0xcfb869bf\n      eq\n      tag_7\n      jumpi\n      dup1\n      0xe0ce2aa9\n      eq\n      tag_8\n      jumpi\n    tag_2:\n      revert(0x00, 0x00)\n        /* \"contracts/SimplePetAdoption.sol\":905:1229  function adoptPet(uint _id) public onlyNotOwner {... */\n    tag_3:\n      tag_9\n      0x04\n      dup1\n      calldatasize\n      sub\n      dup2\n      add\n      swap1\n      tag_10\n      swap2\n      swap1\n      tag_11\n      jump\t// in\n    tag_10:\n      tag_12\n      jump\t// in\n    tag_9:\n      stop\n        /* \"contracts/SimplePetAdoption.sol\":1677:1936  function countAdopted() public view returns (uint) {... */\n    tag_4:\n      tag_13\n      tag_14\n      jump\t// in\n    tag_13:\n      mload(0x40)\n      tag_15\n      swap2\n      swap1\n      tag_16\n      jump\t// in\n    tag_15:\n      mload(0x40)\n      dup1\n      swap2\n      sub\n      swap1\n      return\n        /* \"contracts/SimplePetAdoption.sol\":374:394  address public owner */\n    tag_5:\n      tag_17\n      tag_18\n      jump\t// in\n    tag_17:\n      mload(0x40)\n      tag_19\n      swap2\n      swap1\n      tag_20\n      jump\t// in\n    tag_19:\n      mload(0x40)\n      dup1\n      swap2\n      sub\n      swap1\n      return\n        /* \"contracts/SimplePetAdoption.sol\":1237:1669  function returnPet(uint _id) public onlyNotOwner {... */\n    tag_6:\n      tag_21\n      0x04\n      dup1\n      calldatasize\n      sub\n      dup2\n      add\n      swap1\n      tag_22\n      swap2\n      swap1\n      tag_11\n      jump\t// in\n    tag_22:\n      tag_23\n      jump\t// in\n    tag_21:\n      stop\n        /* \"contracts/SimplePetAdoption.sol\":198:215  Pet[] public pets */\n    tag_7:\n      tag_24\n      0x04\n      dup1\n      calldatasize\n      sub\n      dup2\n      add\n      swap1\n      tag_25\n      swap2\n      swap1\n      tag_11\n      jump\t// in\n    tag_25:\n      tag_26\n      jump\t// in\n    tag_24:\n      mload(0x40)\n      tag_27\n      swap4\n      swap3\n      swap2\n      swap1\n      tag_28\n      jump\t// in\n    tag_27:\n      mload(0x40)\n      dup1\n      swap2\n      sub\n      swap1\n      return\n        /* \"contracts/SimplePetAdoption.sol\":730:897  function registerPet(string memory _name) public onlyOwner {... */\n    tag_8:\n      tag_29\n      0x04\n      dup1\n      calldatasize\n      sub\n      dup2\n      add\n      swap1\n      tag_30\n      swap2\n      swap1\n      tag_31\n      jump\t// in\n    tag_30:\n      tag_32\n      jump\t// in\n    tag_29:\n      stop\n        /* \"contracts/SimplePetAdoption.sol\":905:1229  function adoptPet(uint _id) public onlyNotOwner {... */\n    tag_12:\n        /* \"contracts/SimplePetAdoption.sol\":653:658  owner */\n      0x01\n      0x00\n      swap1\n      sload\n      swap1\n      0x0100\n      exp\n      swap1\n      div\n      0xffffffffffffffffffffffffffffffffffffffff\n      and\n        /* \"contracts/SimplePetAdoption.sol\":639:658  msg.sender != owner */\n      0xffffffffffffffffffffffffffffffffffffffff\n      and\n        /* \"contracts/SimplePetAdoption.sol\":639:649  msg.sender */\n      caller\n        /* \"contracts/SimplePetAdoption.sol\":639:658  msg.sender != owner */\n      0xffffffffffffffffffffffffffffffffffffffff\n      and\n      sub\n        /* \"contracts/SimplePetAdoption.sol\":631:702  require(msg.sender != owner, \"El dueno no puede ejecutar esta funcion\") */\n      tag_34\n      jumpi\n      mload(0x40)\n      0x08c379a000000000000000000000000000000000000000000000000000000000\n      dup2\n      mstore\n      0x04\n      add\n      tag_35\n      swap1\n      tag_36\n      jump\t// in\n    tag_35:\n      mload(0x40)\n      dup1\n      swap2\n      sub\n      swap1\n      revert\n    tag_34:\n        /* \"contracts/SimplePetAdoption.sol\":978:982  pets */\n      0x00\n        /* \"contracts/SimplePetAdoption.sol\":978:989  pets.length */\n      dup1\n      sload\n      swap1\n      pop\n        /* \"contracts/SimplePetAdoption.sol\":972:975  _id */\n      dup2\n        /* \"contracts/SimplePetAdoption.sol\":972:989  _id < pets.length */\n      lt\n        /* \"contracts/SimplePetAdoption.sol\":964:1011  require(_id < pets.length, \"Mascota no existe\") */\n      tag_38\n      jumpi\n      mload(0x40)\n      0x08c379a000000000000000000000000000000000000000000000000000000000\n      dup2\n      mstore\n      0x04\n      add\n      tag_39\n      swap1\n      tag_40\n      jump\t// in\n    tag_39:\n      mload(0x40)\n      dup1\n      swap2\n      sub\n      swap1\n      revert\n    tag_38:\n        /* \"contracts/SimplePetAdoption.sol\":1059:1060  0 */\n      0x00\n        /* \"contracts/SimplePetAdoption.sol\":1030:1061  pets[_id].adopter == address(0) */\n      0xffffffffffffffffffffffffffffffffffffffff\n      and\n        /* \"contracts/SimplePetAdoption.sol\":1030:1034  pets */\n      0x00\n        /* \"contracts/SimplePetAdoption.sol\":1035:1038  _id */\n      dup3\n        /* \"contracts/SimplePetAdoption.sol\":1030:1039  pets[_id] */\n      dup2\n      sload\n      dup2\n      lt\n      tag_41\n      jumpi\n      tag_42\n      tag_43\n      jump\t// in\n    tag_42:\n    tag_41:\n      swap1\n      0x00\n      mstore\n      keccak256(0x00, 0x20)\n      swap1\n      0x03\n      mul\n      add\n        /* \"contracts/SimplePetAdoption.sol\":1030:1047  pets[_id].adopter */\n      0x01\n      add\n      0x00\n      swap1\n      sload\n      swap1\n      0x0100\n      exp\n      swap1\n      div\n      0xffffffffffffffffffffffffffffffffffffffff\n      and\n        /* \"contracts/SimplePetAdoption.sol\":1030:1061  pets[_id].adopter == address(0) */\n      0xffffffffffffffffffffffffffffffffffffffff\n      and\n      eq\n        /* \"contracts/SimplePetAdoption.sol\":1022:1085  require(pets[_id].adopter == address(0), \"Mascota ya adoptada\") */\n      tag_45\n      jumpi\n      mload(0x40)\n      0x08c379a000000000000000000000000000000000000000000000000000000000\n      dup2\n      mstore\n      0x04\n      add\n      tag_46\n      swap1\n      tag_47\n      jump\t// in\n    tag_46:\n      mload(0x40)\n      dup1\n      swap2\n      sub\n      swap1\n      revert\n    tag_45:\n        /* \"contracts/SimplePetAdoption.sol\":1118:1128  msg.sender */\n      caller\n        /* \"contracts/SimplePetAdoption.sol\":1098:1102  pets */\n      0x00\n        /* \"contracts/SimplePetAdoption.sol\":1103:1106  _id */\n      dup3\n        /* \"contracts/SimplePetAdoption.sol\":1098:1107  pets[_id] */\n      dup2\n      sload\n      dup2\n      lt\n      tag_48\n      jumpi\n      tag_49\n      tag_43\n      jump\t// in\n    tag_49:\n    tag_48:\n      swap1\n      0x00\n      mstore\n      keccak256(0x00, 0x20)\n      swap1\n      0x03\n      mul\n      add\n        /* \"contracts/SimplePetAdoption.sol\":1098:1115  pets[_id].adopter */\n      0x01\n      add\n      0x00\n        /* \"contracts/SimplePetAdoption.sol\":1098:1128  pets[_id].adopter = msg.sender */\n      0x0100\n      exp\n      dup2\n      sload\n      dup2\n      0xffffffffffffffffffffffffffffffffffffffff\n      mul\n      not\n      and\n      swap1\n      dup4\n      0xffffffffffffffffffffffffffffffffffffffff\n      and\n      mul\n      or\n      swap1\n      sstore\n      pop\n        /* \"contracts/SimplePetAdoption.sol\":1163:1178  block.timestamp */\n      timestamp\n        /* \"contracts/SimplePetAdoption.sol\":1139:1143  pets */\n      0x00\n        /* \"contracts/SimplePetAdoption.sol\":1144:1147  _id */\n      dup3\n        /* \"contracts/SimplePetAdoption.sol\":1139:1148  pets[_id] */\n      dup2\n      sload\n      dup2\n      lt\n      tag_51\n      jumpi\n      tag_52\n      tag_43\n      jump\t// in\n    tag_52:\n    tag_51:\n      swap1\n      0x00\n      mstore\n      keccak256(0x00, 0x20)\n      swap1\n      0x03\n      mul\n      add\n        /* \"contracts/SimplePetAdoption.sol\":1139:1160  pets[_id].timeAdopted */\n      0x02\n      add\n        /* \"contracts/SimplePetAdoption.sol\":1139:1178  pets[_id].timeAdopted = block.timestamp */\n      dup2\n      swap1\n      sstore\n      pop\n        /* \"contracts/SimplePetAdoption.sol\":1194:1221  PetAdopted(msg.sender, _id) */\n      0x34fcbadf105a17b03e10d0cbd33a726d0946b5dd79e7ea2038b0c15ccdfd3cc8\n        /* \"contracts/SimplePetAdoption.sol\":1205:1215  msg.sender */\n      caller\n        /* \"contracts/SimplePetAdoption.sol\":1217:1220  _id */\n      dup3\n        /* \"contracts/SimplePetAdoption.sol\":1194:1221  PetAdopted(msg.sender, _id) */\n      mload(0x40)\n      tag_54\n      swap3\n      swap2\n      swap1\n      tag_55\n      jump\t// in\n    tag_54:\n      mload(0x40)\n      dup1\n      swap2\n      sub\n      swap1\n      log1\n        /* \"contracts/SimplePetAdoption.sol\":905:1229  function adoptPet(uint _id) public onlyNotOwner {... */\n      pop\n      jump\t// out\n        /* \"contracts/SimplePetAdoption.sol\":1677:1936  function countAdopted() public view returns (uint) {... */\n    tag_14:\n        /* \"contracts/SimplePetAdoption.sol\":1722:1726  uint */\n      0x00\n        /* \"contracts/SimplePetAdoption.sol\":1739:1749  uint count */\n      0x00\n        /* \"contracts/SimplePetAdoption.sol\":1752:1753  0 */\n      0x00\n        /* \"contracts/SimplePetAdoption.sol\":1739:1753  uint count = 0 */\n      swap1\n      pop\n        /* \"contracts/SimplePetAdoption.sol\":1769:1775  uint i */\n      0x00\n        /* \"contracts/SimplePetAdoption.sol\":1778:1779  0 */\n      0x00\n        /* \"contracts/SimplePetAdoption.sol\":1769:1779  uint i = 0 */\n      swap1\n      pop\n        /* \"contracts/SimplePetAdoption.sol\":1764:1906  for (uint i = 0; i < pets.length; i++) {... */\n    tag_57:\n        /* \"contracts/SimplePetAdoption.sol\":1785:1789  pets */\n      0x00\n        /* \"contracts/SimplePetAdoption.sol\":1785:1796  pets.length */\n      dup1\n      sload\n      swap1\n      pop\n        /* \"contracts/SimplePetAdoption.sol\":1781:1782  i */\n      dup2\n        /* \"contracts/SimplePetAdoption.sol\":1781:1796  i < pets.length */\n      lt\n        /* \"contracts/SimplePetAdoption.sol\":1764:1906  for (uint i = 0; i < pets.length; i++) {... */\n      iszero\n      tag_58\n      jumpi\n        /* \"contracts/SimplePetAdoption.sol\":1849:1850  0 */\n      0x00\n        /* \"contracts/SimplePetAdoption.sol\":1822:1851  pets[i].adopter != address(0) */\n      0xffffffffffffffffffffffffffffffffffffffff\n      and\n        /* \"contracts/SimplePetAdoption.sol\":1822:1826  pets */\n      0x00\n        /* \"contracts/SimplePetAdoption.sol\":1827:1828  i */\n      dup3\n        /* \"contracts/SimplePetAdoption.sol\":1822:1829  pets[i] */\n      dup2\n      sload\n      dup2\n      lt\n      tag_60\n      jumpi\n      tag_61\n      tag_43\n      jump\t// in\n    tag_61:\n    tag_60:\n      swap1\n      0x00\n      mstore\n      keccak256(0x00, 0x20)\n      swap1\n      0x03\n      mul\n      add\n        /* \"contracts/SimplePetAdoption.sol\":1822:1837  pets[i].adopter */\n      0x01\n      add\n      0x00\n      swap1\n      sload\n      swap1\n      0x0100\n      exp\n      swap1\n      div\n      0xffffffffffffffffffffffffffffffffffffffff\n      and\n        /* \"contracts/SimplePetAdoption.sol\":1822:1851  pets[i].adopter != address(0) */\n      0xffffffffffffffffffffffffffffffffffffffff\n      and\n      eq\n        /* \"contracts/SimplePetAdoption.sol\":1818:1895  if (pets[i].adopter != address(0)) {... */\n      tag_63\n      jumpi\n        /* \"contracts/SimplePetAdoption.sol\":1872:1879  count++ */\n      dup2\n      dup1\n      tag_64\n      swap1\n      tag_65\n      jump\t// in\n    tag_64:\n      swap3\n      pop\n      pop\n        /* \"contracts/SimplePetAdoption.sol\":1818:1895  if (pets[i].adopter != address(0)) {... */\n    tag_63:\n        /* \"contracts/SimplePetAdoption.sol\":1798:1801  i++ */\n      dup1\n      dup1\n      0x01\n      add\n      swap2\n      pop\n      pop\n        /* \"contracts/SimplePetAdoption.sol\":1764:1906  for (uint i = 0; i < pets.length; i++) {... */\n      jump(tag_57)\n    tag_58:\n      pop\n        /* \"contracts/SimplePetAdoption.sol\":1923:1928  count */\n      dup1\n        /* \"contracts/SimplePetAdoption.sol\":1916:1928  return count */\n      swap2\n      pop\n      pop\n        /* \"contracts/SimplePetAdoption.sol\":1677:1936  function countAdopted() public view returns (uint) {... */\n      swap1\n      jump\t// out\n        /* \"contracts/SimplePetAdoption.sol\":374:394  address public owner */\n    tag_18:\n      0x01\n      0x00\n      swap1\n      sload\n      swap1\n      0x0100\n      exp\n      swap1\n      div\n      0xffffffffffffffffffffffffffffffffffffffff\n      and\n      dup2\n      jump\t// out\n        /* \"contracts/SimplePetAdoption.sol\":1237:1669  function returnPet(uint _id) public onlyNotOwner {... */\n    tag_23:\n        /* \"contracts/SimplePetAdoption.sol\":653:658  owner */\n      0x01\n      0x00\n      swap1\n      sload\n      swap1\n      0x0100\n      exp\n      swap1\n      div\n      0xffffffffffffffffffffffffffffffffffffffff\n      and\n        /* \"contracts/SimplePetAdoption.sol\":639:658  msg.sender != owner */\n      0xffffffffffffffffffffffffffffffffffffffff\n      and\n        /* \"contracts/SimplePetAdoption.sol\":639:649  msg.sender */\n      caller\n        /* \"contracts/SimplePetAdoption.sol\":639:658  msg.sender != owner */\n      0xffffffffffffffffffffffffffffffffffffffff\n      and\n      sub\n        /* \"contracts/SimplePetAdoption.sol\":631:702  require(msg.sender != owner, \"El dueno no puede ejecutar esta funcion\") */\n      tag_67\n      jumpi\n      mload(0x40)\n      0x08c379a000000000000000000000000000000000000000000000000000000000\n      dup2\n      mstore\n      0x04\n      add\n      tag_68\n      swap1\n      tag_36\n      jump\t// in\n    tag_68:\n      mload(0x40)\n      dup1\n      swap2\n      sub\n      swap1\n      revert\n    tag_67:\n        /* \"contracts/SimplePetAdoption.sol\":1311:1315  pets */\n      0x00\n        /* \"contracts/SimplePetAdoption.sol\":1311:1322  pets.length */\n      dup1\n      sload\n      swap1\n      pop\n        /* \"contracts/SimplePetAdoption.sol\":1305:1308  _id */\n      dup2\n        /* \"contracts/SimplePetAdoption.sol\":1305:1322  _id < pets.length */\n      lt\n        /* \"contracts/SimplePetAdoption.sol\":1297:1344  require(_id < pets.length, \"Mascota no existe\") */\n      tag_70\n      jumpi\n      mload(0x40)\n      0x08c379a000000000000000000000000000000000000000000000000000000000\n      dup2\n      mstore\n      0x04\n      add\n      tag_71\n      swap1\n      tag_40\n      jump\t// in\n    tag_71:\n      mload(0x40)\n      dup1\n      swap2\n      sub\n      swap1\n      revert\n    tag_70:\n        /* \"contracts/SimplePetAdoption.sol\":1355:1370  Pet storage pet */\n      0x00\n        /* \"contracts/SimplePetAdoption.sol\":1373:1377  pets */\n      0x00\n        /* \"contracts/SimplePetAdoption.sol\":1378:1381  _id */\n      dup3\n        /* \"contracts/SimplePetAdoption.sol\":1373:1382  pets[_id] */\n      dup2\n      sload\n      dup2\n      lt\n      tag_72\n      jumpi\n      tag_73\n      tag_43\n      jump\t// in\n    tag_73:\n    tag_72:\n      swap1\n      0x00\n      mstore\n      keccak256(0x00, 0x20)\n      swap1\n      0x03\n      mul\n      add\n        /* \"contracts/SimplePetAdoption.sol\":1355:1382  Pet storage pet = pets[_id] */\n      swap1\n      pop\n        /* \"contracts/SimplePetAdoption.sol\":1416:1426  msg.sender */\n      caller\n        /* \"contracts/SimplePetAdoption.sol\":1401:1426  pet.adopter == msg.sender */\n      0xffffffffffffffffffffffffffffffffffffffff\n      and\n        /* \"contracts/SimplePetAdoption.sol\":1401:1404  pet */\n      dup2\n        /* \"contracts/SimplePetAdoption.sol\":1401:1412  pet.adopter */\n      0x01\n      add\n      0x00\n      swap1\n      sload\n      swap1\n      0x0100\n      exp\n      swap1\n      div\n      0xffffffffffffffffffffffffffffffffffffffff\n      and\n        /* \"contracts/SimplePetAdoption.sol\":1401:1426  pet.adopter == msg.sender */\n      0xffffffffffffffffffffffffffffffffffffffff\n      and\n      eq\n        /* \"contracts/SimplePetAdoption.sol\":1393:1451  require(pet.adopter == msg.sender, \"No eres el adoptante\") */\n      tag_75\n      jumpi\n      mload(0x40)\n      0x08c379a000000000000000000000000000000000000000000000000000000000\n      dup2\n      mstore\n      0x04\n      add\n      tag_76\n      swap1\n      tag_77\n      jump\t// in\n    tag_76:\n      mload(0x40)\n      dup1\n      swap2\n      sub\n      swap1\n      revert\n    tag_75:\n        /* \"contracts/SimplePetAdoption.sol\":1507:1516  2 minutes */\n      0x78\n        /* \"contracts/SimplePetAdoption.sol\":1489:1492  pet */\n      dup2\n        /* \"contracts/SimplePetAdoption.sol\":1489:1504  pet.timeAdopted */\n      0x02\n      add\n      sload\n        /* \"contracts/SimplePetAdoption.sol\":1489:1516  pet.timeAdopted + 2 minutes */\n      tag_78\n      swap2\n      swap1\n      tag_79\n      jump\t// in\n    tag_78:\n        /* \"contracts/SimplePetAdoption.sol\":1470:1485  block.timestamp */\n      timestamp\n        /* \"contracts/SimplePetAdoption.sol\":1470:1516  block.timestamp <= pet.timeAdopted + 2 minutes */\n      gt\n      iszero\n        /* \"contracts/SimplePetAdoption.sol\":1462:1550  require(block.timestamp <= pet.timeAdopted + 2 minutes, \"Tiempo de devolucion expirado\") */\n      tag_80\n      jumpi\n      mload(0x40)\n      0x08c379a000000000000000000000000000000000000000000000000000000000\n      dup2\n      mstore\n      0x04\n      add\n      tag_81\n      swap1\n      tag_82\n      jump\t// in\n    tag_81:\n      mload(0x40)\n      dup1\n      swap2\n      sub\n      swap1\n      revert\n    tag_80:\n        /* \"contracts/SimplePetAdoption.sol\":1585:1586  0 */\n      0x00\n        /* \"contracts/SimplePetAdoption.sol\":1563:1566  pet */\n      dup2\n        /* \"contracts/SimplePetAdoption.sol\":1563:1574  pet.adopter */\n      0x01\n      add\n      0x00\n        /* \"contracts/SimplePetAdoption.sol\":1563:1587  pet.adopter = address(0) */\n      0x0100\n      exp\n      dup2\n      sload\n      dup2\n      0xffffffffffffffffffffffffffffffffffffffff\n      mul\n      not\n      and\n      swap1\n      dup4\n      0xffffffffffffffffffffffffffffffffffffffff\n      and\n      mul\n      or\n      swap1\n      sstore\n      pop\n        /* \"contracts/SimplePetAdoption.sol\":1616:1617  0 */\n      0x00\n        /* \"contracts/SimplePetAdoption.sol\":1598:1601  pet */\n      dup2\n        /* \"contracts/SimplePetAdoption.sol\":1598:1613  pet.timeAdopted */\n      0x02\n      add\n        /* \"contracts/SimplePetAdoption.sol\":1598:1617  pet.timeAdopted = 0 */\n      dup2\n      swap1\n      sstore\n      pop\n        /* \"contracts/SimplePetAdoption.sol\":1633:1661  PetReturned(msg.sender, _id) */\n      0xa34db802bb4565905a6f6a3088fd2a40a06aaff101a9b08b6ac63cf720ce3438\n        /* \"contracts/SimplePetAdoption.sol\":1645:1655  msg.sender */\n      caller\n        /* \"contracts/SimplePetAdoption.sol\":1657:1660  _id */\n      dup4\n        /* \"contracts/SimplePetAdoption.sol\":1633:1661  PetReturned(msg.sender, _id) */\n      mload(0x40)\n      tag_83\n      swap3\n      swap2\n      swap1\n      tag_55\n      jump\t// in\n    tag_83:\n      mload(0x40)\n      dup1\n      swap2\n      sub\n      swap1\n      log1\n        /* \"contracts/SimplePetAdoption.sol\":1286:1669  {... */\n      pop\n        /* \"contracts/SimplePetAdoption.sol\":1237:1669  function returnPet(uint _id) public onlyNotOwner {... */\n      pop\n      jump\t// out\n        /* \"contracts/SimplePetAdoption.sol\":198:215  Pet[] public pets */\n    tag_26:\n      0x00\n      dup2\n      dup2\n      sload\n      dup2\n      lt\n      tag_84\n      jumpi\n      0x00\n      dup1\n      revert\n    tag_84:\n      swap1\n      0x00\n      mstore\n      keccak256(0x00, 0x20)\n      swap1\n      0x03\n      mul\n      add\n      0x00\n      swap2\n      pop\n      swap1\n      pop\n      dup1\n      0x00\n      add\n      dup1\n      sload\n      tag_86\n      swap1\n      tag_87\n      jump\t// in\n    tag_86:\n      dup1\n      0x1f\n      add\n      0x20\n      dup1\n      swap2\n      div\n      mul\n      0x20\n      add\n      mload(0x40)\n      swap1\n      dup2\n      add\n      0x40\n      mstore\n      dup1\n      swap3\n      swap2\n      swap1\n      dup2\n      dup2\n      mstore\n      0x20\n      add\n      dup3\n      dup1\n      sload\n      tag_88\n      swap1\n      tag_87\n      jump\t// in\n    tag_88:\n      dup1\n      iszero\n      tag_89\n      jumpi\n      dup1\n      0x1f\n      lt\n      tag_90\n      jumpi\n      0x0100\n      dup1\n      dup4\n      sload\n      div\n      mul\n      dup4\n      mstore\n      swap2\n      0x20\n      add\n      swap2\n      jump(tag_89)\n    tag_90:\n      dup3\n      add\n      swap2\n      swap1\n      0x00\n      mstore\n      keccak256(0x00, 0x20)\n      swap1\n    tag_91:\n      dup2\n      sload\n      dup2\n      mstore\n      swap1\n      0x01\n      add\n      swap1\n      0x20\n      add\n      dup1\n      dup4\n      gt\n      tag_91\n      jumpi\n      dup3\n      swap1\n      sub\n      0x1f\n      and\n      dup3\n      add\n      swap2\n    tag_89:\n      pop\n      pop\n      pop\n      pop\n      pop\n      swap1\n      dup1\n      0x01\n      add\n      0x00\n      swap1\n      sload\n      swap1\n      0x0100\n      exp\n      swap1\n      div\n      0xffffffffffffffffffffffffffffffffffffffff\n      and\n      swap1\n      dup1\n      0x02\n      add\n      sload\n      swap1\n      pop\n      dup4\n      jump\t// out\n        /* \"contracts/SimplePetAdoption.sol\":730:897  function registerPet(string memory _name) public onlyOwner {... */\n    tag_32:\n        /* \"contracts/SimplePetAdoption.sol\":517:522  owner */\n      0x01\n      0x00\n      swap1\n      sload\n      swap1\n      0x0100\n      exp\n      swap1\n      div\n      0xffffffffffffffffffffffffffffffffffffffff\n      and\n        /* \"contracts/SimplePetAdoption.sol\":503:522  msg.sender == owner */\n      0xffffffffffffffffffffffffffffffffffffffff\n      and\n        /* \"contracts/SimplePetAdoption.sol\":503:513  msg.sender */\n      caller\n        /* \"contracts/SimplePetAdoption.sol\":503:522  msg.sender == owner */\n      0xffffffffffffffffffffffffffffffffffffffff\n      and\n      eq\n        /* \"contracts/SimplePetAdoption.sol\":495:568  require(msg.sender == owner, \"Solo el dueno puede ejecutar esta funcion\") */\n      tag_93\n      jumpi\n      mload(0x40)\n      0x08c379a000000000000000000000000000000000000000000000000000000000\n      dup2\n      mstore\n      0x04\n      add\n      tag_94\n      swap1\n      tag_95\n      jump\t// in\n    tag_94:\n      mload(0x40)\n      dup1\n      swap2\n      sub\n      swap1\n      revert\n    tag_93:\n        /* \"contracts/SimplePetAdoption.sol\":800:804  pets */\n      0x00\n        /* \"contracts/SimplePetAdoption.sol\":810:835  Pet(_name, address(0), 0) */\n      mload(0x40)\n      dup1\n      0x60\n      add\n      0x40\n      mstore\n      dup1\n        /* \"contracts/SimplePetAdoption.sol\":814:819  _name */\n      dup4\n        /* \"contracts/SimplePetAdoption.sol\":810:835  Pet(_name, address(0), 0) */\n      dup2\n      mstore\n      0x20\n      add\n        /* \"contracts/SimplePetAdoption.sol\":829:830  0 */\n      0x00\n        /* \"contracts/SimplePetAdoption.sol\":810:835  Pet(_name, address(0), 0) */\n      0xffffffffffffffffffffffffffffffffffffffff\n      and\n      dup2\n      mstore\n      0x20\n      add\n        /* \"contracts/SimplePetAdoption.sol\":833:834  0 */\n      0x00\n        /* \"contracts/SimplePetAdoption.sol\":810:835  Pet(_name, address(0), 0) */\n      dup2\n      mstore\n      pop\n        /* \"contracts/SimplePetAdoption.sol\":800:836  pets.push(Pet(_name, address(0), 0)) */\n      swap1\n      dup1\n      0x01\n      dup2\n      sload\n      add\n      dup1\n      dup3\n      sstore\n      dup1\n      swap2\n      pop\n      pop\n      0x01\n      swap1\n      sub\n      swap1\n      0x00\n      mstore\n      keccak256(0x00, 0x20)\n      swap1\n      0x03\n      mul\n      add\n      0x00\n      swap1\n      swap2\n      swap1\n      swap2\n      swap1\n      swap2\n      pop\n      0x00\n      dup3\n      add\n      mload\n      dup2\n      0x00\n      add\n      swap1\n      dup2\n      tag_98\n      swap2\n      swap1\n      tag_99\n      jump\t// in\n    tag_98:\n      pop\n      0x20\n      dup3\n      add\n      mload\n      dup2\n      0x01\n      add\n      exp(0x0100, 0x00)\n      dup2\n      sload\n      dup2\n      0xffffffffffffffffffffffffffffffffffffffff\n      mul\n      not\n      and\n      swap1\n      dup4\n      0xffffffffffffffffffffffffffffffffffffffff\n      and\n      mul\n      or\n      swap1\n      sstore\n      pop\n      0x40\n      dup3\n      add\n      mload\n      dup2\n      0x02\n      add\n      sstore\n      pop\n      pop\n        /* \"contracts/SimplePetAdoption.sol\":852:889  PetRegistered(_name, pets.length - 1) */\n      0x1941c38e8c58c67971f5cf6f3e58dcb9e6e74456306322a325b2ac6660bd1a51\n        /* \"contracts/SimplePetAdoption.sol\":866:871  _name */\n      dup2\n        /* \"contracts/SimplePetAdoption.sol\":887:888  1 */\n      0x01\n        /* \"contracts/SimplePetAdoption.sol\":873:877  pets */\n      0x00\n        /* \"contracts/SimplePetAdoption.sol\":873:884  pets.length */\n      dup1\n      sload\n      swap1\n      pop\n        /* \"contracts/SimplePetAdoption.sol\":873:888  pets.length - 1 */\n      tag_100\n      swap2\n      swap1\n      tag_101\n      jump\t// in\n    tag_100:\n        /* \"contracts/SimplePetAdoption.sol\":852:889  PetRegistered(_name, pets.length - 1) */\n      mload(0x40)\n      tag_102\n      swap3\n      swap2\n      swap1\n      tag_103\n      jump\t// in\n    tag_102:\n      mload(0x40)\n      dup1\n      swap2\n      sub\n      swap1\n      log1\n        /* \"contracts/SimplePetAdoption.sol\":730:897  function registerPet(string memory _name) public onlyOwner {... */\n      pop\n      jump\t// out\n        /* \"#utility.yul\":7:82   */\n    tag_104:\n        /* \"#utility.yul\":40:46   */\n      0x00\n        /* \"#utility.yul\":73:75   */\n      0x40\n        /* \"#utility.yul\":67:76   */\n      mload\n        /* \"#utility.yul\":57:76   */\n      swap1\n      pop\n        /* \"#utility.yul\":7:82   */\n      swap1\n      jump\t// out\n        /* \"#utility.yul\":88:205   */\n    tag_105:\n        /* \"#utility.yul\":197:198   */\n      0x00\n        /* \"#utility.yul\":194:195   */\n      0x00\n        /* \"#utility.yul\":187:199   */\n      revert\n        /* \"#utility.yul\":211:328   */\n    tag_106:\n        /* \"#utility.yul\":320:321   */\n      0x00\n        /* \"#utility.yul\":317:318   */\n      0x00\n        /* \"#utility.yul\":310:322   */\n      revert\n        /* \"#utility.yul\":334:411   */\n    tag_107:\n        /* \"#utility.yul\":371:378   */\n      0x00\n        /* \"#utility.yul\":400:405   */\n      dup2\n        /* \"#utility.yul\":389:405   */\n      swap1\n      pop\n        /* \"#utility.yul\":334:411   */\n      swap2\n      swap1\n      pop\n      jump\t// out\n        /* \"#utility.yul\":417:539   */\n    tag_108:\n        /* \"#utility.yul\":490:514   */\n      tag_163\n        /* \"#utility.yul\":508:513   */\n      dup2\n        /* \"#utility.yul\":490:514   */\n      tag_107\n      jump\t// in\n    tag_163:\n        /* \"#utility.yul\":483:488   */\n      dup2\n        /* \"#utility.yul\":480:515   */\n      eq\n        /* \"#utility.yul\":470:533   */\n      tag_164\n      jumpi\n        /* \"#utility.yul\":529:530   */\n      0x00\n        /* \"#utility.yul\":526:527   */\n      0x00\n        /* \"#utility.yul\":519:531   */\n      revert\n        /* \"#utility.yul\":470:533   */\n    tag_164:\n        /* \"#utility.yul\":417:539   */\n      pop\n      jump\t// out\n        /* \"#utility.yul\":545:684   */\n    tag_109:\n        /* \"#utility.yul\":591:596   */\n      0x00\n        /* \"#utility.yul\":629:635   */\n      dup2\n        /* \"#utility.yul\":616:636   */\n      calldataload\n        /* \"#utility.yul\":607:636   */\n      swap1\n      pop\n        /* \"#utility.yul\":645:678   */\n      tag_166\n        /* \"#utility.yul\":672:677   */\n      dup2\n        /* \"#utility.yul\":645:678   */\n      tag_108\n      jump\t// in\n    tag_166:\n        /* \"#utility.yul\":545:684   */\n      swap3\n      swap2\n      pop\n      pop\n      jump\t// out\n        /* \"#utility.yul\":690:1019   */\n    tag_11:\n        /* \"#utility.yul\":749:755   */\n      0x00\n        /* \"#utility.yul\":798:800   */\n      0x20\n        /* \"#utility.yul\":786:795   */\n      dup3\n        /* \"#utility.yul\":777:784   */\n      dup5\n        /* \"#utility.yul\":773:796   */\n      sub\n        /* \"#utility.yul\":769:801   */\n      slt\n        /* \"#utility.yul\":766:885   */\n      iszero\n      tag_168\n      jumpi\n        /* \"#utility.yul\":804:883   */\n      tag_169\n      tag_105\n      jump\t// in\n    tag_169:\n        /* \"#utility.yul\":766:885   */\n    tag_168:\n        /* \"#utility.yul\":924:925   */\n      0x00\n        /* \"#utility.yul\":949:1002   */\n      tag_170\n        /* \"#utility.yul\":994:1001   */\n      dup5\n        /* \"#utility.yul\":985:991   */\n      dup3\n        /* \"#utility.yul\":974:983   */\n      dup6\n        /* \"#utility.yul\":970:992   */\n      add\n        /* \"#utility.yul\":949:1002   */\n      tag_109\n      jump\t// in\n    tag_170:\n        /* \"#utility.yul\":939:1002   */\n      swap2\n      pop\n        /* \"#utility.yul\":895:1012   */\n      pop\n        /* \"#utility.yul\":690:1019   */\n      swap3\n      swap2\n      pop\n      pop\n      jump\t// out\n        /* \"#utility.yul\":1025:1143   */\n    tag_110:\n        /* \"#utility.yul\":1112:1136   */\n      tag_172\n        /* \"#utility.yul\":1130:1135   */\n      dup2\n        /* \"#utility.yul\":1112:1136   */\n      tag_107\n      jump\t// in\n    tag_172:\n        /* \"#utility.yul\":1107:1110   */\n      dup3\n        /* \"#utility.yul\":1100:1137   */\n      mstore\n        /* \"#utility.yul\":1025:1143   */\n      pop\n      pop\n      jump\t// out\n        /* \"#utility.yul\":1149:1371   */\n    tag_16:\n        /* \"#utility.yul\":1242:1246   */\n      0x00\n        /* \"#utility.yul\":1280:1282   */\n      0x20\n        /* \"#utility.yul\":1269:1278   */\n      dup3\n        /* \"#utility.yul\":1265:1283   */\n      add\n        /* \"#utility.yul\":1257:1283   */\n      swap1\n      pop\n        /* \"#utility.yul\":1293:1364   */\n      tag_174\n        /* \"#utility.yul\":1361:1362   */\n      0x00\n        /* \"#utility.yul\":1350:1359   */\n      dup4\n        /* \"#utility.yul\":1346:1363   */\n      add\n        /* \"#utility.yul\":1337:1343   */\n      dup5\n        /* \"#utility.yul\":1293:1364   */\n      tag_110\n      jump\t// in\n    tag_174:\n        /* \"#utility.yul\":1149:1371   */\n      swap3\n      swap2\n      pop\n      pop\n      jump\t// out\n        /* \"#utility.yul\":1377:1503   */\n    tag_111:\n        /* \"#utility.yul\":1414:1421   */\n      0x00\n        /* \"#utility.yul\":1454:1496   */\n      0xffffffffffffffffffffffffffffffffffffffff\n        /* \"#utility.yul\":1447:1452   */\n      dup3\n        /* \"#utility.yul\":1443:1497   */\n      and\n        /* \"#utility.yul\":1432:1497   */\n      swap1\n      pop\n        /* \"#utility.yul\":1377:1503   */\n      swap2\n      swap1\n      pop\n      jump\t// out\n        /* \"#utility.yul\":1509:1605   */\n    tag_112:\n        /* \"#utility.yul\":1546:1553   */\n      0x00\n        /* \"#utility.yul\":1575:1599   */\n      tag_177\n        /* \"#utility.yul\":1593:1598   */\n      dup3\n        /* \"#utility.yul\":1575:1599   */\n      tag_111\n      jump\t// in\n    tag_177:\n        /* \"#utility.yul\":1564:1599   */\n      swap1\n      pop\n        /* \"#utility.yul\":1509:1605   */\n      swap2\n      swap1\n      pop\n      jump\t// out\n        /* \"#utility.yul\":1611:1729   */\n    tag_113:\n        /* \"#utility.yul\":1698:1722   */\n      tag_179\n        /* \"#utility.yul\":1716:1721   */\n      dup2\n        /* \"#utility.yul\":1698:1722   */\n      tag_112\n      jump\t// in\n    tag_179:\n        /* \"#utility.yul\":1693:1696   */\n      dup3\n        /* \"#utility.yul\":1686:1723   */\n      mstore\n        /* \"#utility.yul\":1611:1729   */\n      pop\n      pop\n      jump\t// out\n        /* \"#utility.yul\":1735:1957   */\n    tag_20:\n        /* \"#utility.yul\":1828:1832   */\n      0x00\n        /* \"#utility.yul\":1866:1868   */\n      0x20\n        /* \"#utility.yul\":1855:1864   */\n      dup3\n        /* \"#utility.yul\":1851:1869   */\n      add\n        /* \"#utility.yul\":1843:1869   */\n      swap1\n      pop\n        /* \"#utility.yul\":1879:1950   */\n      tag_181\n        /* \"#utility.yul\":1947:1948   */\n      0x00\n        /* \"#utility.yul\":1936:1945   */\n      dup4\n        /* \"#utility.yul\":1932:1949   */\n      add\n        /* \"#utility.yul\":1923:1929   */\n      dup5\n        /* \"#utility.yul\":1879:1950   */\n      tag_113\n      jump\t// in\n    tag_181:\n        /* \"#utility.yul\":1735:1957   */\n      swap3\n      swap2\n      pop\n      pop\n      jump\t// out\n        /* \"#utility.yul\":1963:2062   */\n    tag_114:\n        /* \"#utility.yul\":2015:2021   */\n      0x00\n        /* \"#utility.yul\":2049:2054   */\n      dup2\n        /* \"#utility.yul\":2043:2055   */\n      mload\n        /* \"#utility.yul\":2033:2055   */\n      swap1\n      pop\n        /* \"#utility.yul\":1963:2062   */\n      swap2\n      swap1\n      pop\n      jump\t// out\n        /* \"#utility.yul\":2068:2237   */\n    tag_115:\n        /* \"#utility.yul\":2152:2163   */\n      0x00\n        /* \"#utility.yul\":2186:2192   */\n      dup3\n        /* \"#utility.yul\":2181:2184   */\n      dup3\n        /* \"#utility.yul\":2174:2193   */\n      mstore\n        /* \"#utility.yul\":2226:2230   */\n      0x20\n        /* \"#utility.yul\":2221:2224   */\n      dup3\n        /* \"#utility.yul\":2217:2231   */\n      add\n        /* \"#utility.yul\":2202:2231   */\n      swap1\n      pop\n        /* \"#utility.yul\":2068:2237   */\n      swap3\n      swap2\n      pop\n      pop\n      jump\t// out\n        /* \"#utility.yul\":2243:2382   */\n    tag_116:\n        /* \"#utility.yul\":2332:2338   */\n      dup3\n        /* \"#utility.yul\":2327:2330   */\n      dup2\n        /* \"#utility.yul\":2322:2325   */\n      dup4\n        /* \"#utility.yul\":2316:2339   */\n      mcopy\n        /* \"#utility.yul\":2373:2374   */\n      0x00\n        /* \"#utility.yul\":2364:2370   */\n      dup4\n        /* \"#utility.yul\":2359:2362   */\n      dup4\n        /* \"#utility.yul\":2355:2371   */\n      add\n        /* \"#utility.yul\":2348:2375   */\n      mstore\n        /* \"#utility.yul\":2243:2382   */\n      pop\n      pop\n      pop\n      jump\t// out\n        /* \"#utility.yul\":2388:2490   */\n    tag_117:\n        /* \"#utility.yul\":2429:2435   */\n      0x00\n        /* \"#utility.yul\":2480:2482   */\n      0x1f\n        /* \"#utility.yul\":2476:2483   */\n      not\n        /* \"#utility.yul\":2471:2473   */\n      0x1f\n        /* \"#utility.yul\":2464:2469   */\n      dup4\n        /* \"#utility.yul\":2460:2474   */\n      add\n        /* \"#utility.yul\":2456:2484   */\n      and\n        /* \"#utility.yul\":2446:2484   */\n      swap1\n      pop\n        /* \"#utility.yul\":2388:2490   */\n      swap2\n      swap1\n      pop\n      jump\t// out\n        /* \"#utility.yul\":2496:2873   */\n    tag_118:\n        /* \"#utility.yul\":2584:2587   */\n      0x00\n        /* \"#utility.yul\":2612:2651   */\n      tag_187\n        /* \"#utility.yul\":2645:2650   */\n      dup3\n        /* \"#utility.yul\":2612:2651   */\n      tag_114\n      jump\t// in\n    tag_187:\n        /* \"#utility.yul\":2667:2738   */\n      tag_188\n        /* \"#utility.yul\":2731:2737   */\n      dup2\n        /* \"#utility.yul\":2726:2729   */\n      dup6\n        /* \"#utility.yul\":2667:2738   */\n      tag_115\n      jump\t// in\n    tag_188:\n        /* \"#utility.yul\":2660:2738   */\n      swap4\n      pop\n        /* \"#utility.yul\":2747:2812   */\n      tag_189\n        /* \"#utility.yul\":2805:2811   */\n      dup2\n        /* \"#utility.yul\":2800:2803   */\n      dup6\n        /* \"#utility.yul\":2793:2797   */\n      0x20\n        /* \"#utility.yul\":2786:2791   */\n      dup7\n        /* \"#utility.yul\":2782:2798   */\n      add\n        /* \"#utility.yul\":2747:2812   */\n      tag_116\n      jump\t// in\n    tag_189:\n        /* \"#utility.yul\":2837:2866   */\n      tag_190\n        /* \"#utility.yul\":2859:2865   */\n      dup2\n        /* \"#utility.yul\":2837:2866   */\n      tag_117\n      jump\t// in\n    tag_190:\n        /* \"#utility.yul\":2832:2835   */\n      dup5\n        /* \"#utility.yul\":2828:2867   */\n      add\n        /* \"#utility.yul\":2821:2867   */\n      swap2\n      pop\n        /* \"#utility.yul\":2588:2873   */\n      pop\n        /* \"#utility.yul\":2496:2873   */\n      swap3\n      swap2\n      pop\n      pop\n      jump\t// out\n        /* \"#utility.yul\":2879:3412   */\n    tag_28:\n        /* \"#utility.yul\":3048:3052   */\n      0x00\n        /* \"#utility.yul\":3086:3088   */\n      0x60\n        /* \"#utility.yul\":3075:3084   */\n      dup3\n        /* \"#utility.yul\":3071:3089   */\n      add\n        /* \"#utility.yul\":3063:3089   */\n      swap1\n      pop\n        /* \"#utility.yul\":3135:3144   */\n      dup2\n        /* \"#utility.yul\":3129:3133   */\n      dup2\n        /* \"#utility.yul\":3125:3145   */\n      sub\n        /* \"#utility.yul\":3121:3122   */\n      0x00\n        /* \"#utility.yul\":3110:3119   */\n      dup4\n        /* \"#utility.yul\":3106:3123   */\n      add\n        /* \"#utility.yul\":3099:3146   */\n      mstore\n        /* \"#utility.yul\":3163:3241   */\n      tag_192\n        /* \"#utility.yul\":3236:3240   */\n      dup2\n        /* \"#utility.yul\":3227:3233   */\n      dup7\n        /* \"#utility.yul\":3163:3241   */\n      tag_118\n      jump\t// in\n    tag_192:\n        /* \"#utility.yul\":3155:3241   */\n      swap1\n      pop\n        /* \"#utility.yul\":3251:3323   */\n      tag_193\n        /* \"#utility.yul\":3319:3321   */\n      0x20\n        /* \"#utility.yul\":3308:3317   */\n      dup4\n        /* \"#utility.yul\":3304:3322   */\n      add\n        /* \"#utility.yul\":3295:3301   */\n      dup6\n        /* \"#utility.yul\":3251:3323   */\n      tag_113\n      jump\t// in\n    tag_193:\n        /* \"#utility.yul\":3333:3405   */\n      tag_194\n        /* \"#utility.yul\":3401:3403   */\n      0x40\n        /* \"#utility.yul\":3390:3399   */\n      dup4\n        /* \"#utility.yul\":3386:3404   */\n      add\n        /* \"#utility.yul\":3377:3383   */\n      dup5\n        /* \"#utility.yul\":3333:3405   */\n      tag_110\n      jump\t// in\n    tag_194:\n        /* \"#utility.yul\":2879:3412   */\n      swap5\n      swap4\n      pop\n      pop\n      pop\n      pop\n      jump\t// out\n        /* \"#utility.yul\":3418:3535   */\n    tag_119:\n        /* \"#utility.yul\":3527:3528   */\n      0x00\n        /* \"#utility.yul\":3524:3525   */\n      0x00\n        /* \"#utility.yul\":3517:3529   */\n      revert\n        /* \"#utility.yul\":3541:3658   */\n    tag_120:\n        /* \"#utility.yul\":3650:3651   */\n      0x00\n        /* \"#utility.yul\":3647:3648   */\n      0x00\n        /* \"#utility.yul\":3640:3652   */\n      revert\n        /* \"#utility.yul\":3664:3844   */\n    tag_121:\n        /* \"#utility.yul\":3712:3789   */\n      0x4e487b7100000000000000000000000000000000000000000000000000000000\n        /* \"#utility.yul\":3709:3710   */\n      0x00\n        /* \"#utility.yul\":3702:3790   */\n      mstore\n        /* \"#utility.yul\":3809:3813   */\n      0x41\n        /* \"#utility.yul\":3806:3807   */\n      0x04\n        /* \"#utility.yul\":3799:3814   */\n      mstore\n        /* \"#utility.yul\":3833:3837   */\n      0x24\n        /* \"#utility.yul\":3830:3831   */\n      0x00\n        /* \"#utility.yul\":3823:3838   */\n      revert\n        /* \"#utility.yul\":3850:4131   */\n    tag_122:\n        /* \"#utility.yul\":3933:3960   */\n      tag_199\n        /* \"#utility.yul\":3955:3959   */\n      dup3\n        /* \"#utility.yul\":3933:3960   */\n      tag_117\n      jump\t// in\n    tag_199:\n        /* \"#utility.yul\":3925:3931   */\n      dup2\n        /* \"#utility.yul\":3921:3961   */\n      add\n        /* \"#utility.yul\":4063:4069   */\n      dup2\n        /* \"#utility.yul\":4051:4061   */\n      dup2\n        /* \"#utility.yul\":4048:4070   */\n      lt\n        /* \"#utility.yul\":4027:4045   */\n      0xffffffffffffffff\n        /* \"#utility.yul\":4015:4025   */\n      dup3\n        /* \"#utility.yul\":4012:4046   */\n      gt\n        /* \"#utility.yul\":4009:4071   */\n      or\n        /* \"#utility.yul\":4006:4094   */\n      iszero\n      tag_200\n      jumpi\n        /* \"#utility.yul\":4074:4092   */\n      tag_201\n      tag_121\n      jump\t// in\n    tag_201:\n        /* \"#utility.yul\":4006:4094   */\n    tag_200:\n        /* \"#utility.yul\":4114:4124   */\n      dup1\n        /* \"#utility.yul\":4110:4112   */\n      0x40\n        /* \"#utility.yul\":4103:4125   */\n      mstore\n        /* \"#utility.yul\":3893:4131   */\n      pop\n        /* \"#utility.yul\":3850:4131   */\n      pop\n      pop\n      jump\t// out\n        /* \"#utility.yul\":4137:4266   */\n    tag_123:\n        /* \"#utility.yul\":4171:4177   */\n      0x00\n        /* \"#utility.yul\":4198:4218   */\n      tag_203\n      tag_104\n      jump\t// in\n    tag_203:\n        /* \"#utility.yul\":4188:4218   */\n      swap1\n      pop\n        /* \"#utility.yul\":4227:4260   */\n      tag_204\n        /* \"#utility.yul\":4255:4259   */\n      dup3\n        /* \"#utility.yul\":4247:4253   */\n      dup3\n        /* \"#utility.yul\":4227:4260   */\n      tag_122\n      jump\t// in\n    tag_204:\n        /* \"#utility.yul\":4137:4266   */\n      swap2\n      swap1\n      pop\n      jump\t// out\n        /* \"#utility.yul\":4272:4580   */\n    tag_124:\n        /* \"#utility.yul\":4334:4338   */\n      0x00\n        /* \"#utility.yul\":4424:4442   */\n      0xffffffffffffffff\n        /* \"#utility.yul\":4416:4422   */\n      dup3\n        /* \"#utility.yul\":4413:4443   */\n      gt\n        /* \"#utility.yul\":4410:4466   */\n      iszero\n      tag_206\n      jumpi\n        /* \"#utility.yul\":4446:4464   */\n      tag_207\n      tag_121\n      jump\t// in\n    tag_207:\n        /* \"#utility.yul\":4410:4466   */\n    tag_206:\n        /* \"#utility.yul\":4484:4513   */\n      tag_208\n        /* \"#utility.yul\":4506:4512   */\n      dup3\n        /* \"#utility.yul\":4484:4513   */\n      tag_117\n      jump\t// in\n    tag_208:\n        /* \"#utility.yul\":4476:4513   */\n      swap1\n      pop\n        /* \"#utility.yul\":4568:4572   */\n      0x20\n        /* \"#utility.yul\":4562:4566   */\n      dup2\n        /* \"#utility.yul\":4558:4573   */\n      add\n        /* \"#utility.yul\":4550:4573   */\n      swap1\n      pop\n        /* \"#utility.yul\":4272:4580   */\n      swap2\n      swap1\n      pop\n      jump\t// out\n        /* \"#utility.yul\":4586:4734   */\n    tag_125:\n        /* \"#utility.yul\":4684:4690   */\n      dup3\n        /* \"#utility.yul\":4679:4682   */\n      dup2\n        /* \"#utility.yul\":4674:4677   */\n      dup4\n        /* \"#utility.yul\":4661:4691   */\n      calldatacopy\n        /* \"#utility.yul\":4725:4726   */\n      0x00\n        /* \"#utility.yul\":4716:4722   */\n      dup4\n        /* \"#utility.yul\":4711:4714   */\n      dup4\n        /* \"#utility.yul\":4707:4723   */\n      add\n        /* \"#utility.yul\":4700:4727   */\n      mstore\n        /* \"#utility.yul\":4586:4734   */\n      pop\n      pop\n      pop\n      jump\t// out\n        /* \"#utility.yul\":4740:5165   */\n    tag_126:\n        /* \"#utility.yul\":4818:4823   */\n      0x00\n        /* \"#utility.yul\":4843:4909   */\n      tag_211\n        /* \"#utility.yul\":4859:4908   */\n      tag_212\n        /* \"#utility.yul\":4901:4907   */\n      dup5\n        /* \"#utility.yul\":4859:4908   */\n      tag_124\n      jump\t// in\n    tag_212:\n        /* \"#utility.yul\":4843:4909   */\n      tag_123\n      jump\t// in\n    tag_211:\n        /* \"#utility.yul\":4834:4909   */\n      swap1\n      pop\n        /* \"#utility.yul\":4932:4938   */\n      dup3\n        /* \"#utility.yul\":4925:4930   */\n      dup2\n        /* \"#utility.yul\":4918:4939   */\n      mstore\n        /* \"#utility.yul\":4970:4974   */\n      0x20\n        /* \"#utility.yul\":4963:4968   */\n      dup2\n        /* \"#utility.yul\":4959:4975   */\n      add\n        /* \"#utility.yul\":5008:5011   */\n      dup5\n        /* \"#utility.yul\":4999:5005   */\n      dup5\n        /* \"#utility.yul\":4994:4997   */\n      dup5\n        /* \"#utility.yul\":4990:5006   */\n      add\n        /* \"#utility.yul\":4987:5012   */\n      gt\n        /* \"#utility.yul\":4984:5096   */\n      iszero\n      tag_213\n      jumpi\n        /* \"#utility.yul\":5015:5094   */\n      tag_214\n      tag_120\n      jump\t// in\n    tag_214:\n        /* \"#utility.yul\":4984:5096   */\n    tag_213:\n        /* \"#utility.yul\":5105:5159   */\n      tag_215\n        /* \"#utility.yul\":5152:5158   */\n      dup5\n        /* \"#utility.yul\":5147:5150   */\n      dup3\n        /* \"#utility.yul\":5142:5145   */\n      dup6\n        /* \"#utility.yul\":5105:5159   */\n      tag_125\n      jump\t// in\n    tag_215:\n        /* \"#utility.yul\":4824:5165   */\n      pop\n        /* \"#utility.yul\":4740:5165   */\n      swap4\n      swap3\n      pop\n      pop\n      pop\n      jump\t// out\n        /* \"#utility.yul\":5185:5525   */\n    tag_127:\n        /* \"#utility.yul\":5241:5246   */\n      0x00\n        /* \"#utility.yul\":5290:5293   */\n      dup3\n        /* \"#utility.yul\":5283:5287   */\n      0x1f\n        /* \"#utility.yul\":5275:5281   */\n      dup4\n        /* \"#utility.yul\":5271:5288   */\n      add\n        /* \"#utility.yul\":5267:5294   */\n      slt\n        /* \"#utility.yul\":5257:5379   */\n      tag_217\n      jumpi\n        /* \"#utility.yul\":5298:5377   */\n      tag_218\n      tag_119\n      jump\t// in\n    tag_218:\n        /* \"#utility.yul\":5257:5379   */\n    tag_217:\n        /* \"#utility.yul\":5415:5421   */\n      dup2\n        /* \"#utility.yul\":5402:5422   */\n      calldataload\n        /* \"#utility.yul\":5440:5519   */\n      tag_219\n        /* \"#utility.yul\":5515:5518   */\n      dup5\n        /* \"#utility.yul\":5507:5513   */\n      dup3\n        /* \"#utility.yul\":5500:5504   */\n      0x20\n        /* \"#utility.yul\":5492:5498   */\n      dup7\n        /* \"#utility.yul\":5488:5505   */\n      add\n        /* \"#utility.yul\":5440:5519   */\n      tag_126\n      jump\t// in\n    tag_219:\n        /* \"#utility.yul\":5431:5519   */\n      swap2\n      pop\n        /* \"#utility.yul\":5247:5525   */\n      pop\n        /* \"#utility.yul\":5185:5525   */\n      swap3\n      swap2\n      pop\n      pop\n      jump\t// out\n        /* \"#utility.yul\":5531:6040   */\n    tag_31:\n        /* \"#utility.yul\":5600:5606   */\n      0x00\n        /* \"#utility.yul\":5649:5651   */\n      0x20\n        /* \"#utility.yul\":5637:5646   */\n      dup3\n        /* \"#utility.yul\":5628:5635   */\n      dup5\n        /* \"#utility.yul\":5624:5647   */\n      sub\n        /* \"#utility.yul\":5620:5652   */\n      slt\n        /* \"#utility.yul\":5617:5736   */\n      iszero\n      tag_221\n      jumpi\n        /* \"#utility.yul\":5655:5734   */\n      tag_222\n      tag_105\n      jump\t// in\n    tag_222:\n        /* \"#utility.yul\":5617:5736   */\n    tag_221:\n        /* \"#utility.yul\":5803:5804   */\n      0x00\n        /* \"#utility.yul\":5792:5801   */\n      dup3\n        /* \"#utility.yul\":5788:5805   */\n      add\n        /* \"#utility.yul\":5775:5806   */\n      calldataload\n        /* \"#utility.yul\":5833:5851   */\n      0xffffffffffffffff\n        /* \"#utility.yul\":5825:5831   */\n      dup2\n        /* \"#utility.yul\":5822:5852   */\n      gt\n        /* \"#utility.yul\":5819:5936   */\n      iszero\n      tag_223\n      jumpi\n        /* \"#utility.yul\":5855:5934   */\n      tag_224\n      tag_106\n      jump\t// in\n    tag_224:\n        /* \"#utility.yul\":5819:5936   */\n    tag_223:\n        /* \"#utility.yul\":5960:6023   */\n      tag_225\n        /* \"#utility.yul\":6015:6022   */\n      dup5\n        /* \"#utility.yul\":6006:6012   */\n      dup3\n        /* \"#utility.yul\":5995:6004   */\n      dup6\n        /* \"#utility.yul\":5991:6013   */\n      add\n        /* \"#utility.yul\":5960:6023   */\n      tag_127\n      jump\t// in\n    tag_225:\n        /* \"#utility.yul\":5950:6023   */\n      swap2\n      pop\n        /* \"#utility.yul\":5746:6033   */\n      pop\n        /* \"#utility.yul\":5531:6040   */\n      swap3\n      swap2\n      pop\n      pop\n      jump\t// out\n        /* \"#utility.yul\":6046:6272   */\n    tag_128:\n        /* \"#utility.yul\":6186:6220   */\n      0x456c206475656e6f206e6f20707565646520656a656375746172206573746120\n        /* \"#utility.yul\":6182:6183   */\n      0x00\n        /* \"#utility.yul\":6174:6180   */\n      dup3\n        /* \"#utility.yul\":6170:6184   */\n      add\n        /* \"#utility.yul\":6163:6221   */\n      mstore\n        /* \"#utility.yul\":6255:6264   */\n      0x66756e63696f6e00000000000000000000000000000000000000000000000000\n        /* \"#utility.yul\":6250:6252   */\n      0x20\n        /* \"#utility.yul\":6242:6248   */\n      dup3\n        /* \"#utility.yul\":6238:6253   */\n      add\n        /* \"#utility.yul\":6231:6265   */\n      mstore\n        /* \"#utility.yul\":6046:6272   */\n      pop\n      jump\t// out\n        /* \"#utility.yul\":6278:6644   */\n    tag_129:\n        /* \"#utility.yul\":6420:6423   */\n      0x00\n        /* \"#utility.yul\":6441:6508   */\n      tag_228\n        /* \"#utility.yul\":6505:6507   */\n      0x27\n        /* \"#utility.yul\":6500:6503   */\n      dup4\n        /* \"#utility.yul\":6441:6508   */\n      tag_115\n      jump\t// in\n    tag_228:\n        /* \"#utility.yul\":6434:6508   */\n      swap2\n      pop\n        /* \"#utility.yul\":6517:6610   */\n      tag_229\n        /* \"#utility.yul\":6606:6609   */\n      dup3\n        /* \"#utility.yul\":6517:6610   */\n      tag_128\n      jump\t// in\n    tag_229:\n        /* \"#utility.yul\":6635:6637   */\n      0x40\n        /* \"#utility.yul\":6630:6633   */\n      dup3\n        /* \"#utility.yul\":6626:6638   */\n      add\n        /* \"#utility.yul\":6619:6638   */\n      swap1\n      pop\n        /* \"#utility.yul\":6278:6644   */\n      swap2\n      swap1\n      pop\n      jump\t// out\n        /* \"#utility.yul\":6650:7069   */\n    tag_36:\n        /* \"#utility.yul\":6816:6820   */\n      0x00\n        /* \"#utility.yul\":6854:6856   */\n      0x20\n        /* \"#utility.yul\":6843:6852   */\n      dup3\n        /* \"#utility.yul\":6839:6857   */\n      add\n        /* \"#utility.yul\":6831:6857   */\n      swap1\n      pop\n        /* \"#utility.yul\":6903:6912   */\n      dup2\n        /* \"#utility.yul\":6897:6901   */\n      dup2\n        /* \"#utility.yul\":6893:6913   */\n      sub\n        /* \"#utility.yul\":6889:6890   */\n      0x00\n        /* \"#utility.yul\":6878:6887   */\n      dup4\n        /* \"#utility.yul\":6874:6891   */\n      add\n        /* \"#utility.yul\":6867:6914   */\n      mstore\n        /* \"#utility.yul\":6931:7062   */\n      tag_231\n        /* \"#utility.yul\":7057:7061   */\n      dup2\n        /* \"#utility.yul\":6931:7062   */\n      tag_129\n      jump\t// in\n    tag_231:\n        /* \"#utility.yul\":6923:7062   */\n      swap1\n      pop\n        /* \"#utility.yul\":6650:7069   */\n      swap2\n      swap1\n      pop\n      jump\t// out\n        /* \"#utility.yul\":7075:7242   */\n    tag_130:\n        /* \"#utility.yul\":7215:7234   */\n      0x4d6173636f7461206e6f20657869737465000000000000000000000000000000\n        /* \"#utility.yul\":7211:7212   */\n      0x00\n        /* \"#utility.yul\":7203:7209   */\n      dup3\n        /* \"#utility.yul\":7199:7213   */\n      add\n        /* \"#utility.yul\":7192:7235   */\n      mstore\n        /* \"#utility.yul\":7075:7242   */\n      pop\n      jump\t// out\n        /* \"#utility.yul\":7248:7614   */\n    tag_131:\n        /* \"#utility.yul\":7390:7393   */\n      0x00\n        /* \"#utility.yul\":7411:7478   */\n      tag_234\n        /* \"#utility.yul\":7475:7477   */\n      0x11\n        /* \"#utility.yul\":7470:7473   */\n      dup4\n        /* \"#utility.yul\":7411:7478   */\n      tag_115\n      jump\t// in\n    tag_234:\n        /* \"#utility.yul\":7404:7478   */\n      swap2\n      pop\n        /* \"#utility.yul\":7487:7580   */\n      tag_235\n        /* \"#utility.yul\":7576:7579   */\n      dup3\n        /* \"#utility.yul\":7487:7580   */\n      tag_130\n      jump\t// in\n    tag_235:\n        /* \"#utility.yul\":7605:7607   */\n      0x20\n        /* \"#utility.yul\":7600:7603   */\n      dup3\n        /* \"#utility.yul\":7596:7608   */\n      add\n        /* \"#utility.yul\":7589:7608   */\n      swap1\n      pop\n        /* \"#utility.yul\":7248:7614   */\n      swap2\n      swap1\n      pop\n      jump\t// out\n        /* \"#utility.yul\":7620:8039   */\n    tag_40:\n        /* \"#utility.yul\":7786:7790   */\n      0x00\n        /* \"#utility.yul\":7824:7826   */\n      0x20\n        /* \"#utility.yul\":7813:7822   */\n      dup3\n        /* \"#utility.yul\":7809:7827   */\n      add\n        /* \"#utility.yul\":7801:7827   */\n      swap1\n      pop\n        /* \"#utility.yul\":7873:7882   */\n      dup2\n        /* \"#utility.yul\":7867:7871   */\n      dup2\n        /* \"#utility.yul\":7863:7883   */\n      sub\n        /* \"#utility.yul\":7859:7860   */\n      0x00\n        /* \"#utility.yul\":7848:7857   */\n      dup4\n        /* \"#utility.yul\":7844:7861   */\n      add\n        /* \"#utility.yul\":7837:7884   */\n      mstore\n        /* \"#utility.yul\":7901:8032   */\n      tag_237\n        /* \"#utility.yul\":8027:8031   */\n      dup2\n        /* \"#utility.yul\":7901:8032   */\n      tag_131\n      jump\t// in\n    tag_237:\n        /* \"#utility.yul\":7893:8032   */\n      swap1\n      pop\n        /* \"#utility.yul\":7620:8039   */\n      swap2\n      swap1\n      pop\n      jump\t// out\n        /* \"#utility.yul\":8045:8225   */\n    tag_43:\n        /* \"#utility.yul\":8093:8170   */\n      0x4e487b7100000000000000000000000000000000000000000000000000000000\n        /* \"#utility.yul\":8090:8091   */\n      0x00\n        /* \"#utility.yul\":8083:8171   */\n      mstore\n        /* \"#utility.yul\":8190:8194   */\n      0x32\n        /* \"#utility.yul\":8187:8188   */\n      0x04\n        /* \"#utility.yul\":8180:8195   */\n      mstore\n        /* \"#utility.yul\":8214:8218   */\n      0x24\n        /* \"#utility.yul\":8211:8212   */\n      0x00\n        /* \"#utility.yul\":8204:8219   */\n      revert\n        /* \"#utility.yul\":8231:8400   */\n    tag_132:\n        /* \"#utility.yul\":8371:8392   */\n      0x4d6173636f74612079612061646f707461646100000000000000000000000000\n        /* \"#utility.yul\":8367:8368   */\n      0x00\n        /* \"#utility.yul\":8359:8365   */\n      dup3\n        /* \"#utility.yul\":8355:8369   */\n      add\n        /* \"#utility.yul\":8348:8393   */\n      mstore\n        /* \"#utility.yul\":8231:8400   */\n      pop\n      jump\t// out\n        /* \"#utility.yul\":8406:8772   */\n    tag_133:\n        /* \"#utility.yul\":8548:8551   */\n      0x00\n        /* \"#utility.yul\":8569:8636   */\n      tag_241\n        /* \"#utility.yul\":8633:8635   */\n      0x13\n        /* \"#utility.yul\":8628:8631   */\n      dup4\n        /* \"#utility.yul\":8569:8636   */\n      tag_115\n      jump\t// in\n    tag_241:\n        /* \"#utility.yul\":8562:8636   */\n      swap2\n      pop\n        /* \"#utility.yul\":8645:8738   */\n      tag_242\n        /* \"#utility.yul\":8734:8737   */\n      dup3\n        /* \"#utility.yul\":8645:8738   */\n      tag_132\n      jump\t// in\n    tag_242:\n        /* \"#utility.yul\":8763:8765   */\n      0x20\n        /* \"#utility.yul\":8758:8761   */\n      dup3\n        /* \"#utility.yul\":8754:8766   */\n      add\n        /* \"#utility.yul\":8747:8766   */\n      swap1\n      pop\n        /* \"#utility.yul\":8406:8772   */\n      swap2\n      swap1\n      pop\n      jump\t// out\n        /* \"#utility.yul\":8778:9197   */\n    tag_47:\n        /* \"#utility.yul\":8944:8948   */\n      0x00\n        /* \"#utility.yul\":8982:8984   */\n      0x20\n        /* \"#utility.yul\":8971:8980   */\n      dup3\n        /* \"#utility.yul\":8967:8985   */\n      add\n        /* \"#utility.yul\":8959:8985   */\n      swap1\n      pop\n        /* \"#utility.yul\":9031:9040   */\n      dup2\n        /* \"#utility.yul\":9025:9029   */\n      dup2\n        /* \"#utility.yul\":9021:9041   */\n      sub\n        /* \"#utility.yul\":9017:9018   */\n      0x00\n        /* \"#utility.yul\":9006:9015   */\n      dup4\n        /* \"#utility.yul\":9002:9019   */\n      add\n        /* \"#utility.yul\":8995:9042   */\n      mstore\n        /* \"#utility.yul\":9059:9190   */\n      tag_244\n        /* \"#utility.yul\":9185:9189   */\n      dup2\n        /* \"#utility.yul\":9059:9190   */\n      tag_133\n      jump\t// in\n    tag_244:\n        /* \"#utility.yul\":9051:9190   */\n      swap1\n      pop\n        /* \"#utility.yul\":8778:9197   */\n      swap2\n      swap1\n      pop\n      jump\t// out\n        /* \"#utility.yul\":9203:9535   */\n    tag_55:\n        /* \"#utility.yul\":9324:9328   */\n      0x00\n        /* \"#utility.yul\":9362:9364   */\n      0x40\n        /* \"#utility.yul\":9351:9360   */\n      dup3\n        /* \"#utility.yul\":9347:9365   */\n      add\n        /* \"#utility.yul\":9339:9365   */\n      swap1\n      pop\n        /* \"#utility.yul\":9375:9446   */\n      tag_246\n        /* \"#utility.yul\":9443:9444   */\n      0x00\n        /* \"#utility.yul\":9432:9441   */\n      dup4\n        /* \"#utility.yul\":9428:9445   */\n      add\n        /* \"#utility.yul\":9419:9425   */\n      dup6\n        /* \"#utility.yul\":9375:9446   */\n      tag_113\n      jump\t// in\n    tag_246:\n        /* \"#utility.yul\":9456:9528   */\n      tag_247\n        /* \"#utility.yul\":9524:9526   */\n      0x20\n        /* \"#utility.yul\":9513:9522   */\n      dup4\n        /* \"#utility.yul\":9509:9527   */\n      add\n        /* \"#utility.yul\":9500:9506   */\n      dup5\n        /* \"#utility.yul\":9456:9528   */\n      tag_110\n      jump\t// in\n    tag_247:\n        /* \"#utility.yul\":9203:9535   */\n      swap4\n      swap3\n      pop\n      pop\n      pop\n      jump\t// out\n        /* \"#utility.yul\":9541:9721   */\n    tag_134:\n        /* \"#utility.yul\":9589:9666   */\n      0x4e487b7100000000000000000000000000000000000000000000000000000000\n        /* \"#utility.yul\":9586:9587   */\n      0x00\n        /* \"#utility.yul\":9579:9667   */\n      mstore\n        /* \"#utility.yul\":9686:9690   */\n      0x11\n        /* \"#utility.yul\":9683:9684   */\n      0x04\n        /* \"#utility.yul\":9676:9691   */\n      mstore\n        /* \"#utility.yul\":9710:9714   */\n      0x24\n        /* \"#utility.yul\":9707:9708   */\n      0x00\n        /* \"#utility.yul\":9700:9715   */\n      revert\n        /* \"#utility.yul\":9727:9960   */\n    tag_65:\n        /* \"#utility.yul\":9766:9769   */\n      0x00\n        /* \"#utility.yul\":9789:9813   */\n      tag_250\n        /* \"#utility.yul\":9807:9812   */\n      dup3\n        /* \"#utility.yul\":9789:9813   */\n      tag_107\n      jump\t// in\n    tag_250:\n        /* \"#utility.yul\":9780:9813   */\n      swap2\n      pop\n        /* \"#utility.yul\":9835:9901   */\n      0xffffffffffffffffffffffffffffffffffffffffffffffffffffffffffffffff\n        /* \"#utility.yul\":9828:9833   */\n      dup3\n        /* \"#utility.yul\":9825:9902   */\n      sub\n        /* \"#utility.yul\":9822:9925   */\n      tag_251\n      jumpi\n        /* \"#utility.yul\":9905:9923   */\n      tag_252\n      tag_134\n      jump\t// in\n    tag_252:\n        /* \"#utility.yul\":9822:9925   */\n    tag_251:\n        /* \"#utility.yul\":9952:9953   */\n      0x01\n        /* \"#utility.yul\":9945:9950   */\n      dup3\n        /* \"#utility.yul\":9941:9954   */\n      add\n        /* \"#utility.yul\":9934:9954   */\n      swap1\n      pop\n        /* \"#utility.yul\":9727:9960   */\n      swap2\n      swap1\n      pop\n      jump\t// out\n        /* \"#utility.yul\":9966:10136   */\n    tag_135:\n        /* \"#utility.yul\":10106:10128   */\n      0x4e6f206572657320656c2061646f7074616e7465000000000000000000000000\n        /* \"#utility.yul\":10102:10103   */\n      0x00\n        /* \"#utility.yul\":10094:10100   */\n      dup3\n        /* \"#utility.yul\":10090:10104   */\n      add\n        /* \"#utility.yul\":10083:10129   */\n      mstore\n        /* \"#utility.yul\":9966:10136   */\n      pop\n      jump\t// out\n        /* \"#utility.yul\":10142:10508   */\n    tag_136:\n        /* \"#utility.yul\":10284:10287   */\n      0x00\n        /* \"#utility.yul\":10305:10372   */\n      tag_255\n        /* \"#utility.yul\":10369:10371   */\n      0x14\n        /* \"#utility.yul\":10364:10367   */\n      dup4\n        /* \"#utility.yul\":10305:10372   */\n      tag_115\n      jump\t// in\n    tag_255:\n        /* \"#utility.yul\":10298:10372   */\n      swap2\n      pop\n        /* \"#utility.yul\":10381:10474   */\n      tag_256\n        /* \"#utility.yul\":10470:10473   */\n      dup3\n        /* \"#utility.yul\":10381:10474   */\n      tag_135\n      jump\t// in\n    tag_256:\n        /* \"#utility.yul\":10499:10501   */\n      0x20\n        /* \"#utility.yul\":10494:10497   */\n      dup3\n        /* \"#utility.yul\":10490:10502   */\n      add\n        /* \"#utility.yul\":10483:10502   */\n      swap1\n      pop\n        /* \"#utility.yul\":10142:10508   */\n      swap2\n      swap1\n      pop\n      jump\t// out\n        /* \"#utility.yul\":10514:10933   */\n    tag_77:\n        /* \"#utility.yul\":10680:10684   */\n      0x00\n        /* \"#utility.yul\":10718:10720   */\n      0x20\n        /* \"#utility.yul\":10707:10716   */\n      dup3\n        /* \"#utility.yul\":10703:10721   */\n      add\n        /* \"#utility.yul\":10695:10721   */\n      swap1\n      pop\n        /* \"#utility.yul\":10767:10776   */\n      dup2\n        /* \"#utility.yul\":10761:10765   */\n      dup2\n        /* \"#utility.yul\":10757:10777   */\n      sub\n        /* \"#utility.yul\":10753:10754   */\n      0x00\n        /* \"#utility.yul\":10742:10751   */\n      dup4\n        /* \"#utility.yul\":10738:10755   */\n      add\n        /* \"#utility.yul\":10731:10778   */\n      mstore\n        /* \"#utility.yul\":10795:10926   */\n      tag_258\n        /* \"#utility.yul\":10921:10925   */\n      dup2\n        /* \"#utility.yul\":10795:10926   */\n      tag_136\n      jump\t// in\n    tag_258:\n        /* \"#utility.yul\":10787:10926   */\n      swap1\n      pop\n        /* \"#utility.yul\":10514:10933   */\n      swap2\n      swap1\n      pop\n      jump\t// out\n        /* \"#utility.yul\":10939:11130   */\n    tag_79:\n        /* \"#utility.yul\":10979:10982   */\n      0x00\n        /* \"#utility.yul\":10998:11018   */\n      tag_260\n        /* \"#utility.yul\":11016:11017   */\n      dup3\n        /* \"#utility.yul\":10998:11018   */\n      tag_107\n      jump\t// in\n    tag_260:\n        /* \"#utility.yul\":10993:11018   */\n      swap2\n      pop\n        /* \"#utility.yul\":11032:11052   */\n      tag_261\n        /* \"#utility.yul\":11050:11051   */\n      dup4\n        /* \"#utility.yul\":11032:11052   */\n      tag_107\n      jump\t// in\n    tag_261:\n        /* \"#utility.yul\":11027:11052   */\n      swap3\n      pop\n        /* \"#utility.yul\":11075:11076   */\n      dup3\n        /* \"#utility.yul\":11072:11073   */\n      dup3\n        /* \"#utility.yul\":11068:11077   */\n      add\n        /* \"#utility.yul\":11061:11077   */\n      swap1\n      pop\n        /* \"#utility.yul\":11096:11099   */\n      dup1\n        /* \"#utility.yul\":11093:11094   */\n      dup3\n        /* \"#utility.yul\":11090:11100   */\n      gt\n        /* \"#utility.yul\":11087:11123   */\n      iszero\n      tag_262\n      jumpi\n        /* \"#utility.yul\":11103:11121   */\n      tag_263\n      tag_134\n      jump\t// in\n    tag_263:\n        /* \"#utility.yul\":11087:11123   */\n    tag_262:\n        /* \"#utility.yul\":10939:11130   */\n      swap3\n      swap2\n      pop\n      pop\n      jump\t// out\n        /* \"#utility.yul\":11136:11315   */\n    tag_137:\n        /* \"#utility.yul\":11276:11307   */\n      0x5469656d706f206465206465766f6c7563696f6e20657870697261646f000000\n        /* \"#utility.yul\":11272:11273   */\n      0x00\n        /* \"#utility.yul\":11264:11270   */\n      dup3\n        /* \"#utility.yul\":11260:11274   */\n      add\n        /* \"#utility.yul\":11253:11308   */\n      mstore\n        /* \"#utility.yul\":11136:11315   */\n      pop\n      jump\t// out\n        /* \"#utility.yul\":11321:11687   */\n    tag_138:\n        /* \"#utility.yul\":11463:11466   */\n      0x00\n        /* \"#utility.yul\":11484:11551   */\n      tag_266\n        /* \"#utility.yul\":11548:11550   */\n      0x1d\n        /* \"#utility.yul\":11543:11546   */\n      dup4\n        /* \"#utility.yul\":11484:11551   */\n      tag_115\n      jump\t// in\n    tag_266:\n        /* \"#utility.yul\":11477:11551   */\n      swap2\n      pop\n        /* \"#utility.yul\":11560:11653   */\n      tag_267\n        /* \"#utility.yul\":11649:11652   */\n      dup3\n        /* \"#utility.yul\":11560:11653   */\n      tag_137\n      jump\t// in\n    tag_267:\n        /* \"#utility.yul\":11678:11680   */\n      0x20\n        /* \"#utility.yul\":11673:11676   */\n      dup3\n        /* \"#utility.yul\":11669:11681   */\n      add\n        /* \"#utility.yul\":11662:11681   */\n      swap1\n      pop\n        /* \"#utility.yul\":11321:11687   */\n      swap2\n      swap1\n      pop\n      jump\t// out\n        /* \"#utility.yul\":11693:12112   */\n    tag_82:\n        /* \"#utility.yul\":11859:11863   */\n      0x00\n        /* \"#utility.yul\":11897:11899   */\n      0x20\n        /* \"#utility.yul\":11886:11895   */\n      dup3\n        /* \"#utility.yul\":11882:11900   */\n      add\n        /* \"#utility.yul\":11874:11900   */\n      swap1\n      pop\n        /* \"#utility.yul\":11946:11955   */\n      dup2\n        /* \"#utility.yul\":11940:11944   */\n      dup2\n        /* \"#utility.yul\":11936:11956   */\n      sub\n        /* \"#utility.yul\":11932:11933   */\n      0x00\n        /* \"#utility.yul\":11921:11930   */\n      dup4\n        /* \"#utility.yul\":11917:11934   */\n      add\n        /* \"#utility.yul\":11910:11957   */\n      mstore\n        /* \"#utility.yul\":11974:12105   */\n      tag_269\n        /* \"#utility.yul\":12100:12104   */\n      dup2\n        /* \"#utility.yul\":11974:12105   */\n      tag_138\n      jump\t// in\n    tag_269:\n        /* \"#utility.yul\":11966:12105   */\n      swap1\n      pop\n        /* \"#utility.yul\":11693:12112   */\n      swap2\n      swap1\n      pop\n      jump\t// out\n        /* \"#utility.yul\":12118:12298   */\n    tag_139:\n        /* \"#utility.yul\":12166:12243   */\n      0x4e487b7100000000000000000000000000000000000000000000000000000000\n        /* \"#utility.yul\":12163:12164   */\n      0x00\n        /* \"#utility.yul\":12156:12244   */\n      mstore\n        /* \"#utility.yul\":12263:12267   */\n      0x22\n        /* \"#utility.yul\":12260:12261   */\n      0x04\n        /* \"#utility.yul\":12253:12268   */\n      mstore\n        /* \"#utility.yul\":12287:12291   */\n      0x24\n        /* \"#utility.yul\":12284:12285   */\n      0x00\n        /* \"#utility.yul\":12277:12292   */\n      revert\n        /* \"#utility.yul\":12304:12624   */\n    tag_87:\n        /* \"#utility.yul\":12348:12354   */\n      0x00\n        /* \"#utility.yul\":12385:12386   */\n      0x02\n        /* \"#utility.yul\":12379:12383   */\n      dup3\n        /* \"#utility.yul\":12375:12387   */\n      div\n        /* \"#utility.yul\":12365:12387   */\n      swap1\n      pop\n        /* \"#utility.yul\":12432:12433   */\n      0x01\n        /* \"#utility.yul\":12426:12430   */\n      dup3\n        /* \"#utility.yul\":12422:12434   */\n      and\n        /* \"#utility.yul\":12453:12471   */\n      dup1\n        /* \"#utility.yul\":12443:12524   */\n      tag_272\n      jumpi\n        /* \"#utility.yul\":12509:12513   */\n      0x7f\n        /* \"#utility.yul\":12501:12507   */\n      dup3\n        /* \"#utility.yul\":12497:12514   */\n      and\n        /* \"#utility.yul\":12487:12514   */\n      swap2\n      pop\n        /* \"#utility.yul\":12443:12524   */\n    tag_272:\n        /* \"#utility.yul\":12571:12573   */\n      0x20\n        /* \"#utility.yul\":12563:12569   */\n      dup3\n        /* \"#utility.yul\":12560:12574   */\n      lt\n        /* \"#utility.yul\":12540:12558   */\n      dup2\n        /* \"#utility.yul\":12537:12575   */\n      sub\n        /* \"#utility.yul\":12534:12618   */\n      tag_273\n      jumpi\n        /* \"#utility.yul\":12590:12608   */\n      tag_274\n      tag_139\n      jump\t// in\n    tag_274:\n        /* \"#utility.yul\":12534:12618   */\n    tag_273:\n        /* \"#utility.yul\":12355:12624   */\n      pop\n        /* \"#utility.yul\":12304:12624   */\n      swap2\n      swap1\n      pop\n      jump\t// out\n        /* \"#utility.yul\":12630:12858   */\n    tag_140:\n        /* \"#utility.yul\":12770:12804   */\n      0x536f6c6f20656c206475656e6f20707565646520656a65637574617220657374\n        /* \"#utility.yul\":12766:12767   */\n      0x00\n        /* \"#utility.yul\":12758:12764   */\n      dup3\n        /* \"#utility.yul\":12754:12768   */\n      add\n        /* \"#utility.yul\":12747:12805   */\n      mstore\n        /* \"#utility.yul\":12839:12850   */\n      0x612066756e63696f6e0000000000000000000000000000000000000000000000\n        /* \"#utility.yul\":12834:12836   */\n      0x20\n        /* \"#utility.yul\":12826:12832   */\n      dup3\n        /* \"#utility.yul\":12822:12837   */\n      add\n        /* \"#utility.yul\":12815:12851   */\n      mstore\n        /* \"#utility.yul\":12630:12858   */\n      pop\n      jump\t// out\n        /* \"#utility.yul\":12864:13230   */\n    tag_141:\n        /* \"#utility.yul\":13006:13009   */\n      0x00\n        /* \"#utility.yul\":13027:13094   */\n      tag_277\n        /* \"#utility.yul\":13091:13093   */\n      0x29\n        /* \"#utility.yul\":13086:13089   */\n      dup4\n        /* \"#utility.yul\":13027:13094   */\n      tag_115\n      jump\t// in\n    tag_277:\n        /* \"#utility.yul\":13020:13094   */\n      swap2\n      pop\n        /* \"#utility.yul\":13103:13196   */\n      tag_278\n        /* \"#utility.yul\":13192:13195   */\n      dup3\n        /* \"#utility.yul\":13103:13196   */\n      tag_140\n      jump\t// in\n    tag_278:\n        /* \"#utility.yul\":13221:13223   */\n      0x40\n        /* \"#utility.yul\":13216:13219   */\n      dup3\n        /* \"#utility.yul\":13212:13224   */\n      add\n        /* \"#utility.yul\":13205:13224   */\n      swap1\n      pop\n        /* \"#utility.yul\":12864:13230   */\n      swap2\n      swap1\n      pop\n      jump\t// out\n        /* \"#utility.yul\":13236:13655   */\n    tag_95:\n        /* \"#utility.yul\":13402:13406   */\n      0x00\n        /* \"#utility.yul\":13440:13442   */\n      0x20\n        /* \"#utility.yul\":13429:13438   */\n      dup3\n        /* \"#utility.yul\":13425:13443   */\n      add\n        /* \"#utility.yul\":13417:13443   */\n      swap1\n      pop\n        /* \"#utility.yul\":13489:13498   */\n      dup2\n        /* \"#utility.yul\":13483:13487   */\n      dup2\n        /* \"#utility.yul\":13479:13499   */\n      sub\n        /* \"#utility.yul\":13475:13476   */\n      0x00\n        /* \"#utility.yul\":13464:13473   */\n      dup4\n        /* \"#utility.yul\":13460:13477   */\n      add\n        /* \"#utility.yul\":13453:13500   */\n      mstore\n        /* \"#utility.yul\":13517:13648   */\n      tag_280\n        /* \"#utility.yul\":13643:13647   */\n      dup2\n        /* \"#utility.yul\":13517:13648   */\n      tag_141\n      jump\t// in\n    tag_280:\n        /* \"#utility.yul\":13509:13648   */\n      swap1\n      pop\n        /* \"#utility.yul\":13236:13655   */\n      swap2\n      swap1\n      pop\n      jump\t// out\n        /* \"#utility.yul\":13661:13802   */\n    tag_142:\n        /* \"#utility.yul\":13710:13714   */\n      0x00\n        /* \"#utility.yul\":13733:13736   */\n      dup2\n        /* \"#utility.yul\":13725:13736   */\n      swap1\n      pop\n        /* \"#utility.yul\":13756:13759   */\n      dup2\n        /* \"#utility.yul\":13753:13754   */\n      0x00\n        /* \"#utility.yul\":13746:13760   */\n      mstore\n        /* \"#utility.yul\":13790:13794   */\n      0x20\n        /* \"#utility.yul\":13787:13788   */\n      0x00\n        /* \"#utility.yul\":13777:13795   */\n      keccak256\n        /* \"#utility.yul\":13769:13795   */\n      swap1\n      pop\n        /* \"#utility.yul\":13661:13802   */\n      swap2\n      swap1\n      pop\n      jump\t// out\n        /* \"#utility.yul\":13808:13901   */\n    tag_143:\n        /* \"#utility.yul\":13845:13851   */\n      0x00\n        /* \"#utility.yul\":13892:13894   */\n      0x20\n        /* \"#utility.yul\":13887:13889   */\n      0x1f\n        /* \"#utility.yul\":13880:13885   */\n      dup4\n        /* \"#utility.yul\":13876:13890   */\n      add\n        /* \"#utility.yul\":13872:13895   */\n      div\n        /* \"#utility.yul\":13862:13895   */\n      swap1\n      pop\n        /* \"#utility.yul\":13808:13901   */\n      swap2\n      swap1\n      pop\n      jump\t// out\n        /* \"#utility.yul\":13907:14014   */\n    tag_144:\n        /* \"#utility.yul\":13951:13959   */\n      0x00\n        /* \"#utility.yul\":14001:14006   */\n      dup3\n        /* \"#utility.yul\":13995:13999   */\n      dup3\n        /* \"#utility.yul\":13991:14007   */\n      shl\n        /* \"#utility.yul\":13970:14007   */\n      swap1\n      pop\n        /* \"#utility.yul\":13907:14014   */\n      swap3\n      swap2\n      pop\n      pop\n      jump\t// out\n        /* \"#utility.yul\":14020:14413   */\n    tag_145:\n        /* \"#utility.yul\":14089:14095   */\n      0x00\n        /* \"#utility.yul\":14139:14140   */\n      0x08\n        /* \"#utility.yul\":14127:14137   */\n      dup4\n        /* \"#utility.yul\":14123:14141   */\n      mul\n        /* \"#utility.yul\":14162:14259   */\n      tag_285\n        /* \"#utility.yul\":14192:14258   */\n      0xffffffffffffffffffffffffffffffffffffffffffffffffffffffffffffffff\n        /* \"#utility.yul\":14181:14190   */\n      dup3\n        /* \"#utility.yul\":14162:14259   */\n      tag_144\n      jump\t// in\n    tag_285:\n        /* \"#utility.yul\":14280:14319   */\n      tag_286\n        /* \"#utility.yul\":14310:14318   */\n      dup7\n        /* \"#utility.yul\":14299:14308   */\n      dup4\n        /* \"#utility.yul\":14280:14319   */\n      tag_144\n      jump\t// in\n    tag_286:\n        /* \"#utility.yul\":14268:14319   */\n      swap6\n      pop\n        /* \"#utility.yul\":14352:14356   */\n      dup1\n        /* \"#utility.yul\":14348:14357   */\n      not\n        /* \"#utility.yul\":14341:14346   */\n      dup5\n        /* \"#utility.yul\":14337:14358   */\n      and\n        /* \"#utility.yul\":14328:14358   */\n      swap4\n      pop\n        /* \"#utility.yul\":14401:14405   */\n      dup1\n        /* \"#utility.yul\":14391:14399   */\n      dup7\n        /* \"#utility.yul\":14387:14406   */\n      and\n        /* \"#utility.yul\":14380:14385   */\n      dup5\n        /* \"#utility.yul\":14377:14407   */\n      or\n        /* \"#utility.yul\":14367:14407   */\n      swap3\n      pop\n        /* \"#utility.yul\":14096:14413   */\n      pop\n      pop\n        /* \"#utility.yul\":14020:14413   */\n      swap4\n      swap3\n      pop\n      pop\n      pop\n      jump\t// out\n        /* \"#utility.yul\":14419:14479   */\n    tag_146:\n        /* \"#utility.yul\":14447:14450   */\n      0x00\n        /* \"#utility.yul\":14468:14473   */\n      dup2\n        /* \"#utility.yul\":14461:14473   */\n      swap1\n      pop\n        /* \"#utility.yul\":14419:14479   */\n      swap2\n      swap1\n      pop\n      jump\t// out\n        /* \"#utility.yul\":14485:14627   */\n    tag_147:\n        /* \"#utility.yul\":14535:14544   */\n      0x00\n        /* \"#utility.yul\":14568:14621   */\n      tag_289\n        /* \"#utility.yul\":14586:14620   */\n      tag_290\n        /* \"#utility.yul\":14595:14619   */\n      tag_291\n        /* \"#utility.yul\":14613:14618   */\n      dup5\n        /* \"#utility.yul\":14595:14619   */\n      tag_107\n      jump\t// in\n    tag_291:\n        /* \"#utility.yul\":14586:14620   */\n      tag_146\n      jump\t// in\n    tag_290:\n        /* \"#utility.yul\":14568:14621   */\n      tag_107\n      jump\t// in\n    tag_289:\n        /* \"#utility.yul\":14555:14621   */\n      swap1\n      pop\n        /* \"#utility.yul\":14485:14627   */\n      swap2\n      swap1\n      pop\n      jump\t// out\n        /* \"#utility.yul\":14633:14708   */\n    tag_148:\n        /* \"#utility.yul\":14676:14679   */\n      0x00\n        /* \"#utility.yul\":14697:14702   */\n      dup2\n        /* \"#utility.yul\":14690:14702   */\n      swap1\n      pop\n        /* \"#utility.yul\":14633:14708   */\n      swap2\n      swap1\n      pop\n      jump\t// out\n        /* \"#utility.yul\":14714:14983   */\n    tag_149:\n        /* \"#utility.yul\":14824:14863   */\n      tag_294\n        /* \"#utility.yul\":14855:14862   */\n      dup4\n        /* \"#utility.yul\":14824:14863   */\n      tag_147\n      jump\t// in\n    tag_294:\n        /* \"#utility.yul\":14885:14976   */\n      tag_295\n        /* \"#utility.yul\":14934:14975   */\n      tag_296\n        /* \"#utility.yul\":14958:14974   */\n      dup3\n        /* \"#utility.yul\":14934:14975   */\n      tag_148\n      jump\t// in\n    tag_296:\n        /* \"#utility.yul\":14926:14932   */\n      dup5\n        /* \"#utility.yul\":14919:14923   */\n      dup5\n        /* \"#utility.yul\":14913:14924   */\n      sload\n        /* \"#utility.yul\":14885:14976   */\n      tag_145\n      jump\t// in\n    tag_295:\n        /* \"#utility.yul\":14879:14883   */\n      dup3\n        /* \"#utility.yul\":14872:14977   */\n      sstore\n        /* \"#utility.yul\":14790:14983   */\n      pop\n        /* \"#utility.yul\":14714:14983   */\n      pop\n      pop\n      pop\n      jump\t// out\n        /* \"#utility.yul\":14989:15062   */\n    tag_150:\n        /* \"#utility.yul\":15034:15037   */\n      0x00\n        /* \"#utility.yul\":15055:15056   */\n      0x00\n        /* \"#utility.yul\":15048:15056   */\n      swap1\n      pop\n        /* \"#utility.yul\":14989:15062   */\n      swap1\n      jump\t// out\n        /* \"#utility.yul\":15068:15257   */\n    tag_151:\n        /* \"#utility.yul\":15145:15177   */\n      tag_299\n      tag_150\n      jump\t// in\n    tag_299:\n        /* \"#utility.yul\":15186:15251   */\n      tag_300\n        /* \"#utility.yul\":15244:15250   */\n      dup2\n        /* \"#utility.yul\":15236:15242   */\n      dup5\n        /* \"#utility.yul\":15230:15234   */\n      dup5\n        /* \"#utility.yul\":15186:15251   */\n      tag_149\n      jump\t// in\n    tag_300:\n        /* \"#utility.yul\":15121:15257   */\n      pop\n        /* \"#utility.yul\":15068:15257   */\n      pop\n      pop\n      jump\t// out\n        /* \"#utility.yul\":15263:15449   */\n    tag_152:\n        /* \"#utility.yul\":15323:15443   */\n    tag_302:\n        /* \"#utility.yul\":15340:15343   */\n      dup2\n        /* \"#utility.yul\":15333:15338   */\n      dup2\n        /* \"#utility.yul\":15330:15344   */\n      lt\n        /* \"#utility.yul\":15323:15443   */\n      iszero\n      tag_304\n      jumpi\n        /* \"#utility.yul\":15394:15433   */\n      tag_305\n        /* \"#utility.yul\":15431:15432   */\n      0x00\n        /* \"#utility.yul\":15424:15429   */\n      dup3\n        /* \"#utility.yul\":15394:15433   */\n      tag_151\n      jump\t// in\n    tag_305:\n        /* \"#utility.yul\":15367:15368   */\n      0x01\n        /* \"#utility.yul\":15360:15365   */\n      dup2\n        /* \"#utility.yul\":15356:15369   */\n      add\n        /* \"#utility.yul\":15347:15369   */\n      swap1\n      pop\n        /* \"#utility.yul\":15323:15443   */\n      jump(tag_302)\n    tag_304:\n        /* \"#utility.yul\":15263:15449   */\n      pop\n      pop\n      jump\t// out\n        /* \"#utility.yul\":15455:15998   */\n    tag_153:\n        /* \"#utility.yul\":15556:15558   */\n      0x1f\n        /* \"#utility.yul\":15551:15554   */\n      dup3\n        /* \"#utility.yul\":15548:15559   */\n      gt\n        /* \"#utility.yul\":15545:15991   */\n      iszero\n      tag_307\n      jumpi\n        /* \"#utility.yul\":15590:15628   */\n      tag_308\n        /* \"#utility.yul\":15622:15627   */\n      dup2\n        /* \"#utility.yul\":15590:15628   */\n      tag_142\n      jump\t// in\n    tag_308:\n        /* \"#utility.yul\":15674:15703   */\n      tag_309\n        /* \"#utility.yul\":15692:15702   */\n      dup5\n        /* \"#utility.yul\":15674:15703   */\n      tag_143\n      jump\t// in\n    tag_309:\n        /* \"#utility.yul\":15664:15672   */\n      dup2\n        /* \"#utility.yul\":15660:15704   */\n      add\n        /* \"#utility.yul\":15857:15859   */\n      0x20\n        /* \"#utility.yul\":15845:15855   */\n      dup6\n        /* \"#utility.yul\":15842:15860   */\n      lt\n        /* \"#utility.yul\":15839:15888   */\n      iszero\n      tag_310\n      jumpi\n        /* \"#utility.yul\":15878:15886   */\n      dup2\n        /* \"#utility.yul\":15863:15886   */\n      swap1\n      pop\n        /* \"#utility.yul\":15839:15888   */\n    tag_310:\n        /* \"#utility.yul\":15901:15981   */\n      tag_311\n        /* \"#utility.yul\":15957:15979   */\n      tag_312\n        /* \"#utility.yul\":15975:15978   */\n      dup6\n        /* \"#utility.yul\":15957:15979   */\n      tag_143\n      jump\t// in\n    tag_312:\n        /* \"#utility.yul\":15947:15955   */\n      dup4\n        /* \"#utility.yul\":15943:15980   */\n      add\n        /* \"#utility.yul\":15930:15941   */\n      dup3\n        /* \"#utility.yul\":15901:15981   */\n      tag_152\n      jump\t// in\n    tag_311:\n        /* \"#utility.yul\":15560:15991   */\n      pop\n      pop\n        /* \"#utility.yul\":15545:15991   */\n    tag_307:\n        /* \"#utility.yul\":15455:15998   */\n      pop\n      pop\n      pop\n      jump\t// out\n        /* \"#utility.yul\":16004:16121   */\n    tag_154:\n        /* \"#utility.yul\":16058:16066   */\n      0x00\n        /* \"#utility.yul\":16108:16113   */\n      dup3\n        /* \"#utility.yul\":16102:16106   */\n      dup3\n        /* \"#utility.yul\":16098:16114   */\n      shr\n        /* \"#utility.yul\":16077:16114   */\n      swap1\n      pop\n        /* \"#utility.yul\":16004:16121   */\n      swap3\n      swap2\n      pop\n      pop\n      jump\t// out\n        /* \"#utility.yul\":16127:16296   */\n    tag_155:\n        /* \"#utility.yul\":16171:16177   */\n      0x00\n        /* \"#utility.yul\":16204:16255   */\n      tag_315\n        /* \"#utility.yul\":16252:16253   */\n      0x00\n        /* \"#utility.yul\":16248:16254   */\n      not\n        /* \"#utility.yul\":16240:16245   */\n      dup5\n        /* \"#utility.yul\":16237:16238   */\n      0x08\n        /* \"#utility.yul\":16233:16246   */\n      mul\n        /* \"#utility.yul\":16204:16255   */\n      tag_154\n      jump\t// in\n    tag_315:\n        /* \"#utility.yul\":16200:16256   */\n      not\n        /* \"#utility.yul\":16285:16289   */\n      dup1\n        /* \"#utility.yul\":16279:16283   */\n      dup4\n        /* \"#utility.yul\":16275:16290   */\n      and\n        /* \"#utility.yul\":16265:16290   */\n      swap2\n      pop\n        /* \"#utility.yul\":16178:16296   */\n      pop\n        /* \"#utility.yul\":16127:16296   */\n      swap3\n      swap2\n      pop\n      pop\n      jump\t// out\n        /* \"#utility.yul\":16301:16596   */\n    tag_156:\n        /* \"#utility.yul\":16377:16381   */\n      0x00\n        /* \"#utility.yul\":16523:16552   */\n      tag_317\n        /* \"#utility.yul\":16548:16551   */\n      dup4\n        /* \"#utility.yul\":16542:16546   */\n      dup4\n        /* \"#utility.yul\":16523:16552   */\n      tag_155\n      jump\t// in\n    tag_317:\n        /* \"#utility.yul\":16515:16552   */\n      swap2\n      pop\n        /* \"#utility.yul\":16585:16588   */\n      dup3\n        /* \"#utility.yul\":16582:16583   */\n      0x02\n        /* \"#utility.yul\":16578:16589   */\n      mul\n        /* \"#utility.yul\":16572:16576   */\n      dup3\n        /* \"#utility.yul\":16569:16590   */\n      or\n        /* \"#utility.yul\":16561:16590   */\n      swap1\n      pop\n        /* \"#utility.yul\":16301:16596   */\n      swap3\n      swap2\n      pop\n      pop\n      jump\t// out\n        /* \"#utility.yul\":16601:17996   */\n    tag_99:\n        /* \"#utility.yul\":16718:16755   */\n      tag_319\n        /* \"#utility.yul\":16751:16754   */\n      dup3\n        /* \"#utility.yul\":16718:16755   */\n      tag_114\n      jump\t// in\n    tag_319:\n        /* \"#utility.yul\":16820:16838   */\n      0xffffffffffffffff\n        /* \"#utility.yul\":16812:16818   */\n      dup2\n        /* \"#utility.yul\":16809:16839   */\n      gt\n        /* \"#utility.yul\":16806:16862   */\n      iszero\n      tag_320\n      jumpi\n        /* \"#utility.yul\":16842:16860   */\n      tag_321\n      tag_121\n      jump\t// in\n    tag_321:\n        /* \"#utility.yul\":16806:16862   */\n    tag_320:\n        /* \"#utility.yul\":16886:16924   */\n      tag_322\n        /* \"#utility.yul\":16918:16922   */\n      dup3\n        /* \"#utility.yul\":16912:16923   */\n      sload\n        /* \"#utility.yul\":16886:16924   */\n      tag_87\n      jump\t// in\n    tag_322:\n        /* \"#utility.yul\":16971:17038   */\n      tag_323\n        /* \"#utility.yul\":17031:17037   */\n      dup3\n        /* \"#utility.yul\":17023:17029   */\n      dup3\n        /* \"#utility.yul\":17017:17021   */\n      dup6\n        /* \"#utility.yul\":16971:17038   */\n      tag_153\n      jump\t// in\n    tag_323:\n        /* \"#utility.yul\":17065:17066   */\n      0x00\n        /* \"#utility.yul\":17089:17093   */\n      0x20\n        /* \"#utility.yul\":17076:17093   */\n      swap1\n      pop\n        /* \"#utility.yul\":17121:17123   */\n      0x1f\n        /* \"#utility.yul\":17113:17119   */\n      dup4\n        /* \"#utility.yul\":17110:17124   */\n      gt\n        /* \"#utility.yul\":17138:17139   */\n      0x01\n        /* \"#utility.yul\":17133:17751   */\n      dup2\n      eq\n      tag_325\n      jumpi\n        /* \"#utility.yul\":17795:17796   */\n      0x00\n        /* \"#utility.yul\":17812:17818   */\n      dup5\n        /* \"#utility.yul\":17809:17886   */\n      iszero\n      tag_326\n      jumpi\n        /* \"#utility.yul\":17861:17870   */\n      dup3\n        /* \"#utility.yul\":17856:17859   */\n      dup8\n        /* \"#utility.yul\":17852:17871   */\n      add\n        /* \"#utility.yul\":17846:17872   */\n      mload\n        /* \"#utility.yul\":17837:17872   */\n      swap1\n      pop\n        /* \"#utility.yul\":17809:17886   */\n    tag_326:\n        /* \"#utility.yul\":17912:17979   */\n      tag_327\n        /* \"#utility.yul\":17972:17978   */\n      dup6\n        /* \"#utility.yul\":17965:17970   */\n      dup3\n        /* \"#utility.yul\":17912:17979   */\n      tag_156\n      jump\t// in\n    tag_327:\n        /* \"#utility.yul\":17906:17910   */\n      dup7\n        /* \"#utility.yul\":17899:17980   */\n      sstore\n        /* \"#utility.yul\":17768:17990   */\n      pop\n        /* \"#utility.yul\":17103:17990   */\n      jump(tag_324)\n        /* \"#utility.yul\":17133:17751   */\n    tag_325:\n        /* \"#utility.yul\":17185:17189   */\n      0x1f\n        /* \"#utility.yul\":17181:17190   */\n      not\n        /* \"#utility.yul\":17173:17179   */\n      dup5\n        /* \"#utility.yul\":17169:17191   */\n      and\n        /* \"#utility.yul\":17219:17256   */\n      tag_328\n        /* \"#utility.yul\":17251:17255   */\n      dup7\n        /* \"#utility.yul\":17219:17256   */\n      tag_142\n      jump\t// in\n    tag_328:\n        /* \"#utility.yul\":17278:17279   */\n      0x00\n        /* \"#utility.yul\":17292:17500   */\n    tag_329:\n        /* \"#utility.yul\":17306:17313   */\n      dup3\n        /* \"#utility.yul\":17303:17304   */\n      dup2\n        /* \"#utility.yul\":17300:17314   */\n      lt\n        /* \"#utility.yul\":17292:17500   */\n      iszero\n      tag_331\n      jumpi\n        /* \"#utility.yul\":17385:17394   */\n      dup5\n        /* \"#utility.yul\":17380:17383   */\n      dup10\n        /* \"#utility.yul\":17376:17395   */\n      add\n        /* \"#utility.yul\":17370:17396   */\n      mload\n        /* \"#utility.yul\":17362:17368   */\n      dup3\n        /* \"#utility.yul\":17355:17397   */\n      sstore\n        /* \"#utility.yul\":17436:17437   */\n      0x01\n        /* \"#utility.yul\":17428:17434   */\n      dup3\n        /* \"#utility.yul\":17424:17438   */\n      add\n        /* \"#utility.yul\":17414:17438   */\n      swap2\n      pop\n        /* \"#utility.yul\":17483:17485   */\n      0x20\n        /* \"#utility.yul\":17472:17481   */\n      dup6\n        /* \"#utility.yul\":17468:17486   */\n      add\n        /* \"#utility.yul\":17455:17486   */\n      swap5\n      pop\n        /* \"#utility.yul\":17329:17333   */\n      0x20\n        /* \"#utility.yul\":17326:17327   */\n      dup2\n        /* \"#utility.yul\":17322:17334   */\n      add\n        /* \"#utility.yul\":17317:17334   */\n      swap1\n      pop\n        /* \"#utility.yul\":17292:17500   */\n      jump(tag_329)\n    tag_331:\n        /* \"#utility.yul\":17528:17534   */\n      dup7\n        /* \"#utility.yul\":17519:17526   */\n      dup4\n        /* \"#utility.yul\":17516:17535   */\n      lt\n        /* \"#utility.yul\":17513:17692   */\n      iszero\n      tag_332\n      jumpi\n        /* \"#utility.yul\":17586:17595   */\n      dup5\n        /* \"#utility.yul\":17581:17584   */\n      dup10\n        /* \"#utility.yul\":17577:17596   */\n      add\n        /* \"#utility.yul\":17571:17597   */\n      mload\n        /* \"#utility.yul\":17629:17677   */\n      tag_333\n        /* \"#utility.yul\":17671:17675   */\n      0x1f\n        /* \"#utility.yul\":17663:17669   */\n      dup10\n        /* \"#utility.yul\":17659:17676   */\n      and\n        /* \"#utility.yul\":17648:17657   */\n      dup3\n        /* \"#utility.yul\":17629:17677   */\n      tag_155\n      jump\t// in\n    tag_333:\n        /* \"#utility.yul\":17621:17627   */\n      dup4\n        /* \"#utility.yul\":17614:17678   */\n      sstore\n        /* \"#utility.yul\":17536:17692   */\n      pop\n        /* \"#utility.yul\":17513:17692   */\n    tag_332:\n        /* \"#utility.yul\":17738:17739   */\n      0x01\n        /* \"#utility.yul\":17734:17735   */\n      0x02\n        /* \"#utility.yul\":17726:17732   */\n      dup9\n        /* \"#utility.yul\":17722:17736   */\n      mul\n        /* \"#utility.yul\":17718:17740   */\n      add\n        /* \"#utility.yul\":17712:17716   */\n      dup9\n        /* \"#utility.yul\":17705:17741   */\n      sstore\n        /* \"#utility.yul\":17140:17751   */\n      pop\n      pop\n      pop\n        /* \"#utility.yul\":17103:17990   */\n    tag_324:\n      pop\n        /* \"#utility.yul\":16693:17996   */\n      pop\n      pop\n      pop\n        /* \"#utility.yul\":16601:17996   */\n      pop\n      pop\n      jump\t// out\n        /* \"#utility.yul\":18002:18196   */\n    tag_101:\n        /* \"#utility.yul\":18042:18046   */\n      0x00\n        /* \"#utility.yul\":18062:18082   */\n      tag_335\n        /* \"#utility.yul\":18080:18081   */\n      dup3\n        /* \"#utility.yul\":18062:18082   */\n      tag_107\n      jump\t// in\n    tag_335:\n        /* \"#utility.yul\":18057:18082   */\n      swap2\n      pop\n        /* \"#utility.yul\":18096:18116   */\n      tag_336\n        /* \"#utility.yul\":18114:18115   */\n      dup4\n        /* \"#utility.yul\":18096:18116   */\n      tag_107\n      jump\t// in\n    tag_336:\n        /* \"#utility.yul\":18091:18116   */\n      swap3\n      pop\n        /* \"#utility.yul\":18140:18141   */\n      dup3\n        /* \"#utility.yul\":18137:18138   */\n      dup3\n        /* \"#utility.yul\":18133:18142   */\n      sub\n        /* \"#utility.yul\":18125:18142   */\n      swap1\n      pop\n        /* \"#utility.yul\":18164:18165   */\n      dup2\n        /* \"#utility.yul\":18158:18162   */\n      dup2\n        /* \"#utility.yul\":18155:18166   */\n      gt\n        /* \"#utility.yul\":18152:18189   */\n      iszero\n      tag_337\n      jumpi\n        /* \"#utility.yul\":18169:18187   */\n      tag_338\n      tag_134\n      jump\t// in\n    tag_338:\n        /* \"#utility.yul\":18152:18189   */\n    tag_337:\n        /* \"#utility.yul\":18002:18196   */\n      swap3\n      swap2\n      pop\n      pop\n      jump\t// out\n        /* \"#utility.yul\":18202:18625   */\n    tag_103:\n        /* \"#utility.yul\":18343:18347   */\n      0x00\n        /* \"#utility.yul\":18381:18383   */\n      0x40\n        /* \"#utility.yul\":18370:18379   */\n      dup3\n        /* \"#utility.yul\":18366:18384   */\n      add\n        /* \"#utility.yul\":18358:18384   */\n      swap1\n      pop\n        /* \"#utility.yul\":18430:18439   */\n      dup2\n        /* \"#utility.yul\":18424:18428   */\n      dup2\n        /* \"#utility.yul\":18420:18440   */\n      sub\n        /* \"#utility.yul\":18416:18417   */\n      0x00\n        /* \"#utility.yul\":18405:18414   */\n      dup4\n        /* \"#utility.yul\":18401:18418   */\n      add\n        /* \"#utility.yul\":18394:18441   */\n      mstore\n        /* \"#utility.yul\":18458:18536   */\n      tag_340\n        /* \"#utility.yul\":18531:18535   */\n      dup2\n        /* \"#utility.yul\":18522:18528   */\n      dup6\n        /* \"#utility.yul\":18458:18536   */\n      tag_118\n      jump\t// in\n    tag_340:\n        /* \"#utility.yul\":18450:18536   */\n      swap1\n      pop\n        /* \"#utility.yul\":18546:18618   */\n      tag_341\n        /* \"#utility.yul\":18614:18616   */\n      0x20\n        /* \"#utility.yul\":18603:18612   */\n      dup4\n        /* \"#utility.yul\":18599:18617   */\n      add\n        /* \"#utility.yul\":18590:18596   */\n      dup5\n        /* \"#utility.yul\":18546:18618   */\n      tag_110\n      jump\t// in\n    tag_341:\n        /* \"#utility.yul\":18202:18625   */\n      swap4\n      swap3\n      pop\n      pop\n      pop\n      jump\t// out\n\n    auxdata: 0xa264697066735822122063ddeea9728e3a9ff908316130aa6bbe2d25328b0c36b6d0cf725d6c4ad3d86264736f6c634300081e0033\n}\n",
				"bytecode": {
					"linkReferences": {},
					"object": "6080604052348015600e575f5ffd5b503360015f6101000a81548173ffffffffffffffffffffffffffffffffffffffff021916908373ffffffffffffffffffffffffffffffffffffffff16021790555061133d8061005c5f395ff3fe608060405234801561000f575f5ffd5b5060043610610060575f3560e01c806319b8157714610064578063680f6522146100805780638da5cb5b1461009e578063bdb92e8e146100bc578063cfb869bf146100d8578063e0ce2aa91461010a575b5f5ffd5b61007e60048036038101906100799190610959565b610126565b005b61008861036d565b6040516100959190610993565b60405180910390f35b6100a661041b565b6040516100b391906109eb565b60405180910390f35b6100d660048036038101906100d19190610959565b610440565b005b6100f260048036038101906100ed9190610959565b6106a3565b60405161010193929190610a74565b60405180910390f35b610124600480360381019061011f9190610bdc565b61077c565b005b60015f9054906101000a900473ffffffffffffffffffffffffffffffffffffffff1673ffffffffffffffffffffffffffffffffffffffff163373ffffffffffffffffffffffffffffffffffffffff16036101b5576040517f08c379a00000000000000000000000000000000000000000000000000000000081526004016101ac90610c93565b60405180910390fd5b5f8054905081106101fb576040517f08c379a00000000000000000000000000000000000000000000000000000000081526004016101f290610cfb565b60405180910390fd5b5f73ffffffffffffffffffffffffffffffffffffffff165f828154811061022557610224610d19565b5b905f5260205f2090600302016001015f9054906101000a900473ffffffffffffffffffffffffffffffffffffffff1673ffffffffffffffffffffffffffffffffffffffff16146102aa576040517f08c379a00000000000000000000000000000000000000000000000000000000081526004016102a190610d90565b60405180910390fd5b335f82815481106102be576102bd610d19565b5b905f5260205f2090600302016001015f6101000a81548173ffffffffffffffffffffffffffffffffffffffff021916908373ffffffffffffffffffffffffffffffffffffffff160217905550425f828154811061031e5761031d610d19565b5b905f5260205f209060030201600201819055507f34fcbadf105a17b03e10d0cbd33a726d0946b5dd79e7ea2038b0c15ccdfd3cc83382604051610362929190610dae565b60405180910390a150565b5f5f5f90505f5f90505b5f80549050811015610413575f73ffffffffffffffffffffffffffffffffffffffff165f82815481106103ad576103ac610d19565b5b905f5260205f2090600302016001015f9054906101000a900473ffffffffffffffffffffffffffffffffffffffff1673ffffffffffffffffffffffffffffffffffffffff161461040657818061040290610e02565b9250505b8080600101915050610377565b508091505090565b60015f9054906101000a900473ffffffffffffffffffffffffffffffffffffffff1681565b60015f9054906101000a900473ffffffffffffffffffffffffffffffffffffffff1673ffffffffffffffffffffffffffffffffffffffff163373ffffffffffffffffffffffffffffffffffffffff16036104cf576040517f08c379a00000000000000000000000000000000000000000000000000000000081526004016104c690610c93565b60405180910390fd5b5f805490508110610515576040517f08c379a000000000000000000000000000000000000000000000000000000000815260040161050c90610cfb565b60405180910390fd5b5f5f828154811061052957610528610d19565b5b905f5260205f20906003020190503373ffffffffffffffffffffffffffffffffffffffff16816001015f9054906101000a900473ffffffffffffffffffffffffffffffffffffffff1673ffffffffffffffffffffffffffffffffffffffff16146105c8576040517f08c379a00000000000000000000000000000000000000000000000000000000081526004016105bf90610e93565b60405180910390fd5b607881600201546105d99190610eb1565b42111561061b576040517f08c379a000000000000000000000000000000000000000000000000000000000815260040161061290610f2e565b60405180910390fd5b5f816001015f6101000a81548173ffffffffffffffffffffffffffffffffffffffff021916908373ffffffffffffffffffffffffffffffffffffffff1602179055505f81600201819055507fa34db802bb4565905a6f6a3088fd2a40a06aaff101a9b08b6ac63cf720ce34383383604051610697929190610dae565b60405180910390a15050565b5f81815481106106b1575f80fd5b905f5260205f2090600302015f91509050805f0180546106d090610f79565b80601f01602080910402602001604051908101604052809291908181526020018280546106fc90610f79565b80156107475780601f1061071e57610100808354040283529160200191610747565b820191905f5260205f20905b81548152906001019060200180831161072a57829003601f168201915b505050505090806001015f9054906101000a900473ffffffffffffffffffffffffffffffffffffffff16908060020154905083565b60015f9054906101000a900473ffffffffffffffffffffffffffffffffffffffff1673ffffffffffffffffffffffffffffffffffffffff163373ffffffffffffffffffffffffffffffffffffffff161461080b576040517f08c379a000000000000000000000000000000000000000000000000000000000815260040161080290611019565b60405180910390fd5b5f60405180606001604052808381526020015f73ffffffffffffffffffffffffffffffffffffffff1681526020015f815250908060018154018082558091505060019003905f5260205f2090600302015f909190919091505f820151815f01908161087691906111d7565b506020820151816001015f6101000a81548173ffffffffffffffffffffffffffffffffffffffff021916908373ffffffffffffffffffffffffffffffffffffffff1602179055506040820151816002015550507f1941c38e8c58c67971f5cf6f3e58dcb9e6e74456306322a325b2ac6660bd1a518160015f805490506108fc91906112a6565b60405161090a9291906112d9565b60405180910390a150565b5f604051905090565b5f5ffd5b5f5ffd5b5f819050919050565b61093881610926565b8114610942575f5ffd5b50565b5f813590506109538161092f565b92915050565b5f6020828403121561096e5761096d61091e565b5b5f61097b84828501610945565b91505092915050565b61098d81610926565b82525050565b5f6020820190506109a65f830184610984565b92915050565b5f73ffffffffffffffffffffffffffffffffffffffff82169050919050565b5f6109d5826109ac565b9050919050565b6109e5816109cb565b82525050565b5f6020820190506109fe5f8301846109dc565b92915050565b5f81519050919050565b5f82825260208201905092915050565b8281835e5f83830152505050565b5f601f19601f8301169050919050565b5f610a4682610a04565b610a508185610a0e565b9350610a60818560208601610a1e565b610a6981610a2c565b840191505092915050565b5f6060820190508181035f830152610a8c8186610a3c565b9050610a9b60208301856109dc565b610aa86040830184610984565b949350505050565b5f5ffd5b5f5ffd5b7f4e487b71000000000000000000000000000000000000000000000000000000005f52604160045260245ffd5b610aee82610a2c565b810181811067ffffffffffffffff82111715610b0d57610b0c610ab8565b5b80604052505050565b5f610b1f610915565b9050610b2b8282610ae5565b919050565b5f67ffffffffffffffff821115610b4a57610b49610ab8565b5b610b5382610a2c565b9050602081019050919050565b828183375f83830152505050565b5f610b80610b7b84610b30565b610b16565b905082815260208101848484011115610b9c57610b9b610ab4565b5b610ba7848285610b60565b509392505050565b5f82601f830112610bc357610bc2610ab0565b5b8135610bd3848260208601610b6e565b91505092915050565b5f60208284031215610bf157610bf061091e565b5b5f82013567ffffffffffffffff811115610c0e57610c0d610922565b5b610c1a84828501610baf565b91505092915050565b7f456c206475656e6f206e6f20707565646520656a6563757461722065737461205f8201527f66756e63696f6e00000000000000000000000000000000000000000000000000602082015250565b5f610c7d602783610a0e565b9150610c8882610c23565b604082019050919050565b5f6020820190508181035f830152610caa81610c71565b9050919050565b7f4d6173636f7461206e6f206578697374650000000000000000000000000000005f82015250565b5f610ce5601183610a0e565b9150610cf082610cb1565b602082019050919050565b5f6020820190508181035f830152610d1281610cd9565b9050919050565b7f4e487b71000000000000000000000000000000000000000000000000000000005f52603260045260245ffd5b7f4d6173636f74612079612061646f7074616461000000000000000000000000005f82015250565b5f610d7a601383610a0e565b9150610d8582610d46565b602082019050919050565b5f6020820190508181035f830152610da781610d6e565b9050919050565b5f604082019050610dc15f8301856109dc565b610dce6020830184610984565b9392505050565b7f4e487b71000000000000000000000000000000000000000000000000000000005f52601160045260245ffd5b5f610e0c82610926565b91507fffffffffffffffffffffffffffffffffffffffffffffffffffffffffffffffff8203610e3e57610e3d610dd5565b5b600182019050919050565b7f4e6f206572657320656c2061646f7074616e74650000000000000000000000005f82015250565b5f610e7d601483610a0e565b9150610e8882610e49565b602082019050919050565b5f6020820190508181035f830152610eaa81610e71565b9050919050565b5f610ebb82610926565b9150610ec683610926565b9250828201905080821115610ede57610edd610dd5565b5b92915050565b7f5469656d706f206465206465766f6c7563696f6e20657870697261646f0000005f82015250565b5f610f18601d83610a0e565b9150610f2382610ee4565b602082019050919050565b5f6020820190508181035f830152610f4581610f0c565b9050919050565b7f4e487b71000000000000000000000000000000000000000000000000000000005f52602260045260245ffd5b5f6002820490506001821680610f9057607f821691505b602082108103610fa357610fa2610f4c565b5b50919050565b7f536f6c6f20656c206475656e6f20707565646520656a656375746172206573745f8201527f612066756e63696f6e0000000000000000000000000000000000000000000000602082015250565b5f611003602983610a0e565b915061100e82610fa9565b604082019050919050565b5f6020820190508181035f83015261103081610ff7565b9050919050565b5f819050815f5260205f209050919050565b5f6020601f8301049050919050565b5f82821b905092915050565b5f600883026110937fffffffffffffffffffffffffffffffffffffffffffffffffffffffffffffffff82611058565b61109d8683611058565b95508019841693508086168417925050509392505050565b5f819050919050565b5f6110d86110d36110ce84610926565b6110b5565b610926565b9050919050565b5f819050919050565b6110f1836110be565b6111056110fd826110df565b848454611064565b825550505050565b5f5f905090565b61111c61110d565b6111278184846110e8565b505050565b5b8181101561114a5761113f5f82611114565b60018101905061112d565b5050565b601f82111561118f5761116081611037565b61116984611049565b81016020851015611178578190505b61118c61118485611049565b83018261112c565b50505b505050565b5f82821c905092915050565b5f6111af5f1984600802611194565b1980831691505092915050565b5f6111c783836111a0565b9150826002028217905092915050565b6111e082610a04565b67ffffffffffffffff8111156111f9576111f8610ab8565b5b6112038254610f79565b61120e82828561114e565b5f60209050601f83116001811461123f575f841561122d578287015190505b61123785826111bc565b86555061129e565b601f19841661124d86611037565b5f5b828110156112745784890151825560018201915060208501945060208101905061124f565b86831015611291578489015161128d601f8916826111a0565b8355505b6001600288020188555050505b505050505050565b5f6112b082610926565b91506112bb83610926565b92508282039050818111156112d3576112d2610dd5565b5b92915050565b5f6040820190508181035f8301526112f18185610a3c565b90506113006020830184610984565b939250505056fea264697066735822122063ddeea9728e3a9ff908316130aa6bbe2d25328b0c36b6d0cf725d6c4ad3d86264736f6c634300081e0033",
					"opcodes": "PUSH1 0x80 PUSH1 0x40 MSTORE CALLVALUE DUP1 ISZERO PUSH1 0xE JUMPI PUSH0 PUSH0 REVERT JUMPDEST POP CALLER PUSH1 0x1 PUSH0 PUSH2 0x100 EXP DUP2 SLOAD DUP2 PUSH20 0xFFFFFFFFFFFFFFFFFFFFFFFFFFFFFFFFFFFFFFFF MUL NOT AND SWAP1 DUP4 PUSH20 0xFFFFFFFFFFFFFFFFFFFFFFFFFFFFFFFFFFFFFFFF AND MUL OR SWAP1 SSTORE POP PUSH2 0x133D DUP1 PUSH2 0x5C PUSH0 CODECOPY PUSH0 RETURN INVALID PUSH1 0x80 PUSH1 0x40 MSTORE CALLVALUE DUP1 ISZERO PUSH2 0xF JUMPI PUSH0 PUSH0 REVERT JUMPDEST POP PUSH1 0x4 CALLDATASIZE LT PUSH2 0x60 JUMPI PUSH0 CALLDATALOAD PUSH1 0xE0 SHR DUP1 PUSH4 0x19B81577 EQ PUSH2 0x64 JUMPI DUP1 PUSH4 0x680F6522 EQ PUSH2 0x80 JUMPI DUP1 PUSH4 0x8DA5CB5B EQ PUSH2 0x9E JUMPI DUP1 PUSH4 0xBDB92E8E EQ PUSH2 0xBC JUMPI DUP1 PUSH4 0xCFB869BF EQ PUSH2 0xD8 JUMPI DUP1 PUSH4 0xE0CE2AA9 EQ PUSH2 0x10A JUMPI JUMPDEST PUSH0 PUSH0 REVERT JUMPDEST PUSH2 0x7E PUSH1 0x4 DUP1 CALLDATASIZE SUB DUP2 ADD SWAP1 PUSH2 0x79 SWAP2 SWAP1 PUSH2 0x959 JUMP JUMPDEST PUSH2 0x126 JUMP JUMPDEST STOP JUMPDEST PUSH2 0x88 PUSH2 0x36D JUMP JUMPDEST PUSH1 0x40 MLOAD PUSH2 0x95 SWAP2 SWAP1 PUSH2 0x993 JUMP JUMPDEST PUSH1 0x40 MLOAD DUP1 SWAP2 SUB SWAP1 RETURN JUMPDEST PUSH2 0xA6 PUSH2 0x41B JUMP JUMPDEST PUSH1 0x40 MLOAD PUSH2 0xB3 SWAP2 SWAP1 PUSH2 0x9EB JUMP JUMPDEST PUSH1 0x40 MLOAD DUP1 SWAP2 SUB SWAP1 RETURN JUMPDEST PUSH2 0xD6 PUSH1 0x4 DUP1 CALLDATASIZE SUB DUP2 ADD SWAP1 PUSH2 0xD1 SWAP2 SWAP1 PUSH2 0x959 JUMP JUMPDEST PUSH2 0x440 JUMP JUMPDEST STOP JUMPDEST PUSH2 0xF2 PUSH1 0x4 DUP1 CALLDATASIZE SUB DUP2 ADD SWAP1 PUSH2 0xED SWAP2 SWAP1 PUSH2 0x959 JUMP JUMPDEST PUSH2 0x6A3 JUMP JUMPDEST PUSH1 0x40 MLOAD PUSH2 0x101 SWAP4 SWAP3 SWAP2 SWAP1 PUSH2 0xA74 JUMP JUMPDEST PUSH1 0x40 MLOAD DUP1 SWAP2 SUB SWAP1 RETURN JUMPDEST PUSH2 0x124 PUSH1 0x4 DUP1 CALLDATASIZE SUB DUP2 ADD SWAP1 PUSH2 0x11F SWAP2 SWAP1 PUSH2 0xBDC JUMP JUMPDEST PUSH2 0x77C JUMP JUMPDEST STOP JUMPDEST PUSH1 0x1 PUSH0 SWAP1 SLOAD SWAP1 PUSH2 0x100 EXP SWAP1 DIV PUSH20 0xFFFFFFFFFFFFFFFFFFFFFFFFFFFFFFFFFFFFFFFF AND PUSH20 0xFFFFFFFFFFFFFFFFFFFFFFFFFFFFFFFFFFFFFFFF AND CALLER PUSH20 0xFFFFFFFFFFFFFFFFFFFFFFFFFFFFFFFFFFFFFFFF AND SUB PUSH2 0x1B5 JUMPI PUSH1 0x40 MLOAD PUSH32 0x8C379A000000000000000000000000000000000000000000000000000000000 DUP2 MSTORE PUSH1 0x4 ADD PUSH2 0x1AC SWAP1 PUSH2 0xC93 JUMP JUMPDEST PUSH1 0x40 MLOAD DUP1 SWAP2 SUB SWAP1 REVERT JUMPDEST PUSH0 DUP1 SLOAD SWAP1 POP DUP2 LT PUSH2 0x1FB JUMPI PUSH1 0x40 MLOAD PUSH32 0x8C379A000000000000000000000000000000000000000000000000000000000 DUP2 MSTORE PUSH1 0x4 ADD PUSH2 0x1F2 SWAP1 PUSH2 0xCFB JUMP JUMPDEST PUSH1 0x40 MLOAD DUP1 SWAP2 SUB SWAP1 REVERT JUMPDEST PUSH0 PUSH20 0xFFFFFFFFFFFFFFFFFFFFFFFFFFFFFFFFFFFFFFFF AND PUSH0 DUP3 DUP2 SLOAD DUP2 LT PUSH2 0x225 JUMPI PUSH2 0x224 PUSH2 0xD19 JUMP JUMPDEST JUMPDEST SWAP1 PUSH0 MSTORE PUSH1 0x20 PUSH0 KECCAK256 SWAP1 PUSH1 0x3 MUL ADD PUSH1 0x1 ADD PUSH0 SWAP1 SLOAD SWAP1 PUSH2 0x100 EXP SWAP1 DIV PUSH20 0xFFFFFFFFFFFFFFFFFFFFFFFFFFFFFFFFFFFFFFFF AND PUSH20 0xFFFFFFFFFFFFFFFFFFFFFFFFFFFFFFFFFFFFFFFF AND EQ PUSH2 0x2AA JUMPI PUSH1 0x40 MLOAD PUSH32 0x8C379A000000000000000000000000000000000000000000000000000000000 DUP2 MSTORE PUSH1 0x4 ADD PUSH2 0x2A1 SWAP1 PUSH2 0xD90 JUMP JUMPDEST PUSH1 0x40 MLOAD DUP1 SWAP2 SUB SWAP1 REVERT JUMPDEST CALLER PUSH0 DUP3 DUP2 SLOAD DUP2 LT PUSH2 0x2BE JUMPI PUSH2 0x2BD PUSH2 0xD19 JUMP JUMPDEST JUMPDEST SWAP1 PUSH0 MSTORE PUSH1 0x20 PUSH0 KECCAK256 SWAP1 PUSH1 0x3 MUL ADD PUSH1 0x1 ADD PUSH0 PUSH2 0x100 EXP DUP2 SLOAD DUP2 PUSH20 0xFFFFFFFFFFFFFFFFFFFFFFFFFFFFFFFFFFFFFFFF MUL NOT AND SWAP1 DUP4 PUSH20 0xFFFFFFFFFFFFFFFFFFFFFFFFFFFFFFFFFFFFFFFF AND MUL OR SWAP1 SSTORE POP TIMESTAMP PUSH0 DUP3 DUP2 SLOAD DUP2 LT PUSH2 0x31E JUMPI PUSH2 0x31D PUSH2 0xD19 JUMP JUMPDEST JUMPDEST SWAP1 PUSH0 MSTORE PUSH1 0x20 PUSH0 KECCAK256 SWAP1 PUSH1 0x3 MUL ADD PUSH1 0x2 ADD DUP2 SWAP1 SSTORE POP PUSH32 0x34FCBADF105A17B03E10D0CBD33A726D0946B5DD79E7EA2038B0C15CCDFD3CC8 CALLER DUP3 PUSH1 0x40 MLOAD PUSH2 0x362 SWAP3 SWAP2 SWAP1 PUSH2 0xDAE JUMP JUMPDEST PUSH1 0x40 MLOAD DUP1 SWAP2 SUB SWAP1 LOG1 POP JUMP JUMPDEST PUSH0 PUSH0 PUSH0 SWAP1 POP PUSH0 PUSH0 SWAP1 POP JUMPDEST PUSH0 DUP1 SLOAD SWAP1 POP DUP2 LT ISZERO PUSH2 0x413 JUMPI PUSH0 PUSH20 0xFFFFFFFFFFFFFFFFFFFFFFFFFFFFFFFFFFFFFFFF AND PUSH0 DUP3 DUP2 SLOAD DUP2 LT PUSH2 0x3AD JUMPI PUSH2 0x3AC PUSH2 0xD19 JUMP JUMPDEST JUMPDEST SWAP1 PUSH0 MSTORE PUSH1 0x20 PUSH0 KECCAK256 SWAP1 PUSH1 0x3 MUL ADD PUSH1 0x1 ADD PUSH0 SWAP1 SLOAD SWAP1 PUSH2 0x100 EXP SWAP1 DIV PUSH20 0xFFFFFFFFFFFFFFFFFFFFFFFFFFFFFFFFFFFFFFFF AND PUSH20 0xFFFFFFFFFFFFFFFFFFFFFFFFFFFFFFFFFFFFFFFF AND EQ PUSH2 0x406 JUMPI DUP2 DUP1 PUSH2 0x402 SWAP1 PUSH2 0xE02 JUMP JUMPDEST SWAP3 POP POP JUMPDEST DUP1 DUP1 PUSH1 0x1 ADD SWAP2 POP POP PUSH2 0x377 JUMP JUMPDEST POP DUP1 SWAP2 POP POP SWAP1 JUMP JUMPDEST PUSH1 0x1 PUSH0 SWAP1 SLOAD SWAP1 PUSH2 0x100 EXP SWAP1 DIV PUSH20 0xFFFFFFFFFFFFFFFFFFFFFFFFFFFFFFFFFFFFFFFF AND DUP2 JUMP JUMPDEST PUSH1 0x1 PUSH0 SWAP1 SLOAD SWAP1 PUSH2 0x100 EXP SWAP1 DIV PUSH20 0xFFFFFFFFFFFFFFFFFFFFFFFFFFFFFFFFFFFFFFFF AND PUSH20 0xFFFFFFFFFFFFFFFFFFFFFFFFFFFFFFFFFFFFFFFF AND CALLER PUSH20 0xFFFFFFFFFFFFFFFFFFFFFFFFFFFFFFFFFFFFFFFF AND SUB PUSH2 0x4CF JUMPI PUSH1 0x40 MLOAD PUSH32 0x8C379A000000000000000000000000000000000000000000000000000000000 DUP2 MSTORE PUSH1 0x4 ADD PUSH2 0x4C6 SWAP1 PUSH2 0xC93 JUMP JUMPDEST PUSH1 0x40 MLOAD DUP1 SWAP2 SUB SWAP1 REVERT JUMPDEST PUSH0 DUP1 SLOAD SWAP1 POP DUP2 LT PUSH2 0x515 JUMPI PUSH1 0x40 MLOAD PUSH32 0x8C379A000000000000000000000000000000000000000000000000000000000 DUP2 MSTORE PUSH1 0x4 ADD PUSH2 0x50C SWAP1 PUSH2 0xCFB JUMP JUMPDEST PUSH1 0x40 MLOAD DUP1 SWAP2 SUB SWAP1 REVERT JUMPDEST PUSH0 PUSH0 DUP3 DUP2 SLOAD DUP2 LT PUSH2 0x529 JUMPI PUSH2 0x528 PUSH2 0xD19 JUMP JUMPDEST JUMPDEST SWAP1 PUSH0 MSTORE PUSH1 0x20 PUSH0 KECCAK256 SWAP1 PUSH1 0x3 MUL ADD SWAP1 POP CALLER PUSH20 0xFFFFFFFFFFFFFFFFFFFFFFFFFFFFFFFFFFFFFFFF AND DUP2 PUSH1 0x1 ADD PUSH0 SWAP1 SLOAD SWAP1 PUSH2 0x100 EXP SWAP1 DIV PUSH20 0xFFFFFFFFFFFFFFFFFFFFFFFFFFFFFFFFFFFFFFFF AND PUSH20 0xFFFFFFFFFFFFFFFFFFFFFFFFFFFFFFFFFFFFFFFF AND EQ PUSH2 0x5C8 JUMPI PUSH1 0x40 MLOAD PUSH32 0x8C379A000000000000000000000000000000000000000000000000000000000 DUP2 MSTORE PUSH1 0x4 ADD PUSH2 0x5BF SWAP1 PUSH2 0xE93 JUMP JUMPDEST PUSH1 0x40 MLOAD DUP1 SWAP2 SUB SWAP1 REVERT JUMPDEST PUSH1 0x78 DUP2 PUSH1 0x2 ADD SLOAD PUSH2 0x5D9 SWAP2 SWAP1 PUSH2 0xEB1 JUMP JUMPDEST TIMESTAMP GT ISZERO PUSH2 0x61B JUMPI PUSH1 0x40 MLOAD PUSH32 0x8C379A000000000000000000000000000000000000000000000000000000000 DUP2 MSTORE PUSH1 0x4 ADD PUSH2 0x612 SWAP1 PUSH2 0xF2E JUMP JUMPDEST PUSH1 0x40 MLOAD DUP1 SWAP2 SUB SWAP1 REVERT JUMPDEST PUSH0 DUP2 PUSH1 0x1 ADD PUSH0 PUSH2 0x100 EXP DUP2 SLOAD DUP2 PUSH20 0xFFFFFFFFFFFFFFFFFFFFFFFFFFFFFFFFFFFFFFFF MUL NOT AND SWAP1 DUP4 PUSH20 0xFFFFFFFFFFFFFFFFFFFFFFFFFFFFFFFFFFFFFFFF AND MUL OR SWAP1 SSTORE POP PUSH0 DUP2 PUSH1 0x2 ADD DUP2 SWAP1 SSTORE POP PUSH32 0xA34DB802BB4565905A6F6A3088FD2A40A06AAFF101A9B08B6AC63CF720CE3438 CALLER DUP4 PUSH1 0x40 MLOAD PUSH2 0x697 SWAP3 SWAP2 SWAP1 PUSH2 0xDAE JUMP JUMPDEST PUSH1 0x40 MLOAD DUP1 SWAP2 SUB SWAP1 LOG1 POP POP JUMP JUMPDEST PUSH0 DUP2 DUP2 SLOAD DUP2 LT PUSH2 0x6B1 JUMPI PUSH0 DUP1 REVERT JUMPDEST SWAP1 PUSH0 MSTORE PUSH1 0x20 PUSH0 KECCAK256 SWAP1 PUSH1 0x3 MUL ADD PUSH0 SWAP2 POP SWAP1 POP DUP1 PUSH0 ADD DUP1 SLOAD PUSH2 0x6D0 SWAP1 PUSH2 0xF79 JUMP JUMPDEST DUP1 PUSH1 0x1F ADD PUSH1 0x20 DUP1 SWAP2 DIV MUL PUSH1 0x20 ADD PUSH1 0x40 MLOAD SWAP1 DUP2 ADD PUSH1 0x40 MSTORE DUP1 SWAP3 SWAP2 SWAP1 DUP2 DUP2 MSTORE PUSH1 0x20 ADD DUP3 DUP1 SLOAD PUSH2 0x6FC SWAP1 PUSH2 0xF79 JUMP JUMPDEST DUP1 ISZERO PUSH2 0x747 JUMPI DUP1 PUSH1 0x1F LT PUSH2 0x71E JUMPI PUSH2 0x100 DUP1 DUP4 SLOAD DIV MUL DUP4 MSTORE SWAP2 PUSH1 0x20 ADD SWAP2 PUSH2 0x747 JUMP JUMPDEST DUP3 ADD SWAP2 SWAP1 PUSH0 MSTORE PUSH1 0x20 PUSH0 KECCAK256 SWAP1 JUMPDEST DUP2 SLOAD DUP2 MSTORE SWAP1 PUSH1 0x1 ADD SWAP1 PUSH1 0x20 ADD DUP1 DUP4 GT PUSH2 0x72A JUMPI DUP3 SWAP1 SUB PUSH1 0x1F AND DUP3 ADD SWAP2 JUMPDEST POP POP POP POP POP SWAP1 DUP1 PUSH1 0x1 ADD PUSH0 SWAP1 SLOAD SWAP1 PUSH2 0x100 EXP SWAP1 DIV PUSH20 0xFFFFFFFFFFFFFFFFFFFFFFFFFFFFFFFFFFFFFFFF AND SWAP1 DUP1 PUSH1 0x2 ADD SLOAD SWAP1 POP DUP4 JUMP JUMPDEST PUSH1 0x1 PUSH0 SWAP1 SLOAD SWAP1 PUSH2 0x100 EXP SWAP1 DIV PUSH20 0xFFFFFFFFFFFFFFFFFFFFFFFFFFFFFFFFFFFFFFFF AND PUSH20 0xFFFFFFFFFFFFFFFFFFFFFFFFFFFFFFFFFFFFFFFF AND CALLER PUSH20 0xFFFFFFFFFFFFFFFFFFFFFFFFFFFFFFFFFFFFFFFF AND EQ PUSH2 0x80B JUMPI PUSH1 0x40 MLOAD PUSH32 0x8C379A000000000000000000000000000000000000000000000000000000000 DUP2 MSTORE PUSH1 0x4 ADD PUSH2 0x802 SWAP1 PUSH2 0x1019 JUMP JUMPDEST PUSH1 0x40 MLOAD DUP1 SWAP2 SUB SWAP1 REVERT JUMPDEST PUSH0 PUSH1 0x40 MLOAD DUP1 PUSH1 0x60 ADD PUSH1 0x40 MSTORE DUP1 DUP4 DUP2 MSTORE PUSH1 0x20 ADD PUSH0 PUSH20 0xFFFFFFFFFFFFFFFFFFFFFFFFFFFFFFFFFFFFFFFF AND DUP2 MSTORE PUSH1 0x20 ADD PUSH0 DUP2 MSTORE POP SWAP1 DUP1 PUSH1 0x1 DUP2 SLOAD ADD DUP1 DUP3 SSTORE DUP1 SWAP2 POP POP PUSH1 0x1 SWAP1 SUB SWAP1 PUSH0 MSTORE PUSH1 0x20 PUSH0 KECCAK256 SWAP1 PUSH1 0x3 MUL ADD PUSH0 SWAP1 SWAP2 SWAP1 SWAP2 SWAP1 SWAP2 POP PUSH0 DUP3 ADD MLOAD DUP2 PUSH0 ADD SWAP1 DUP2 PUSH2 0x876 SWAP2 SWAP1 PUSH2 0x11D7 JUMP JUMPDEST POP PUSH1 0x20 DUP3 ADD MLOAD DUP2 PUSH1 0x1 ADD PUSH0 PUSH2 0x100 EXP DUP2 SLOAD DUP2 PUSH20 0xFFFFFFFFFFFFFFFFFFFFFFFFFFFFFFFFFFFFFFFF MUL NOT AND SWAP1 DUP4 PUSH20 0xFFFFFFFFFFFFFFFFFFFFFFFFFFFFFFFFFFFFFFFF AND MUL OR SWAP1 SSTORE POP PUSH1 0x40 DUP3 ADD MLOAD DUP2 PUSH1 0x2 ADD SSTORE POP POP PUSH32 0x1941C38E8C58C67971F5CF6F3E58DCB9E6E74456306322A325B2AC6660BD1A51 DUP2 PUSH1 0x1 PUSH0 DUP1 SLOAD SWAP1 POP PUSH2 0x8FC SWAP2 SWAP1 PUSH2 0x12A6 JUMP JUMPDEST PUSH1 0x40 MLOAD PUSH2 0x90A SWAP3 SWAP2 SWAP1 PUSH2 0x12D9 JUMP JUMPDEST PUSH1 0x40 MLOAD DUP1 SWAP2 SUB SWAP1 LOG1 POP JUMP JUMPDEST PUSH0 PUSH1 0x40 MLOAD SWAP1 POP SWAP1 JUMP JUMPDEST PUSH0 PUSH0 REVERT JUMPDEST PUSH0 PUSH0 REVERT JUMPDEST PUSH0 DUP2 SWAP1 POP SWAP2 SWAP1 POP JUMP JUMPDEST PUSH2 0x938 DUP2 PUSH2 0x926 JUMP JUMPDEST DUP2 EQ PUSH2 0x942 JUMPI PUSH0 PUSH0 REVERT JUMPDEST POP JUMP JUMPDEST PUSH0 DUP2 CALLDATALOAD SWAP1 POP PUSH2 0x953 DUP2 PUSH2 0x92F JUMP JUMPDEST SWAP3 SWAP2 POP POP JUMP JUMPDEST PUSH0 PUSH1 0x20 DUP3 DUP5 SUB SLT ISZERO PUSH2 0x96E JUMPI PUSH2 0x96D PUSH2 0x91E JUMP JUMPDEST JUMPDEST PUSH0 PUSH2 0x97B DUP5 DUP3 DUP6 ADD PUSH2 0x945 JUMP JUMPDEST SWAP2 POP POP SWAP3 SWAP2 POP POP JUMP JUMPDEST PUSH2 0x98D DUP2 PUSH2 0x926 JUMP JUMPDEST DUP3 MSTORE POP POP JUMP JUMPDEST PUSH0 PUSH1 0x20 DUP3 ADD SWAP1 POP PUSH2 0x9A6 PUSH0 DUP4 ADD DUP5 PUSH2 0x984 JUMP JUMPDEST SWAP3 SWAP2 POP POP JUMP JUMPDEST PUSH0 PUSH20 0xFFFFFFFFFFFFFFFFFFFFFFFFFFFFFFFFFFFFFFFF DUP3 AND SWAP1 POP SWAP2 SWAP1 POP JUMP JUMPDEST PUSH0 PUSH2 0x9D5 DUP3 PUSH2 0x9AC JUMP JUMPDEST SWAP1 POP SWAP2 SWAP1 POP JUMP JUMPDEST PUSH2 0x9E5 DUP2 PUSH2 0x9CB JUMP JUMPDEST DUP3 MSTORE POP POP JUMP JUMPDEST PUSH0 PUSH1 0x20 DUP3 ADD SWAP1 POP PUSH2 0x9FE PUSH0 DUP4 ADD DUP5 PUSH2 0x9DC JUMP JUMPDEST SWAP3 SWAP2 POP POP JUMP JUMPDEST PUSH0 DUP2 MLOAD SWAP1 POP SWAP2 SWAP1 POP JUMP JUMPDEST PUSH0 DUP3 DUP3 MSTORE PUSH1 0x20 DUP3 ADD SWAP1 POP SWAP3 SWAP2 POP POP JUMP JUMPDEST DUP3 DUP2 DUP4 MCOPY PUSH0 DUP4 DUP4 ADD MSTORE POP POP POP JUMP JUMPDEST PUSH0 PUSH1 0x1F NOT PUSH1 0x1F DUP4 ADD AND SWAP1 POP SWAP2 SWAP1 POP JUMP JUMPDEST PUSH0 PUSH2 0xA46 DUP3 PUSH2 0xA04 JUMP JUMPDEST PUSH2 0xA50 DUP2 DUP6 PUSH2 0xA0E JUMP JUMPDEST SWAP4 POP PUSH2 0xA60 DUP2 DUP6 PUSH1 0x20 DUP7 ADD PUSH2 0xA1E JUMP JUMPDEST PUSH2 0xA69 DUP2 PUSH2 0xA2C JUMP JUMPDEST DUP5 ADD SWAP2 POP POP SWAP3 SWAP2 POP POP JUMP JUMPDEST PUSH0 PUSH1 0x60 DUP3 ADD SWAP1 POP DUP2 DUP2 SUB PUSH0 DUP4 ADD MSTORE PUSH2 0xA8C DUP2 DUP7 PUSH2 0xA3C JUMP JUMPDEST SWAP1 POP PUSH2 0xA9B PUSH1 0x20 DUP4 ADD DUP6 PUSH2 0x9DC JUMP JUMPDEST PUSH2 0xAA8 PUSH1 0x40 DUP4 ADD DUP5 PUSH2 0x984 JUMP JUMPDEST SWAP5 SWAP4 POP POP POP POP JUMP JUMPDEST PUSH0 PUSH0 REVERT JUMPDEST PUSH0 PUSH0 REVERT JUMPDEST PUSH32 0x4E487B7100000000000000000000000000000000000000000000000000000000 PUSH0 MSTORE PUSH1 0x41 PUSH1 0x4 MSTORE PUSH1 0x24 PUSH0 REVERT JUMPDEST PUSH2 0xAEE DUP3 PUSH2 0xA2C JUMP JUMPDEST DUP2 ADD DUP2 DUP2 LT PUSH8 0xFFFFFFFFFFFFFFFF DUP3 GT OR ISZERO PUSH2 0xB0D JUMPI PUSH2 0xB0C PUSH2 0xAB8 JUMP JUMPDEST JUMPDEST DUP1 PUSH1 0x40 MSTORE POP POP POP JUMP JUMPDEST PUSH0 PUSH2 0xB1F PUSH2 0x915 JUMP JUMPDEST SWAP1 POP PUSH2 0xB2B DUP3 DUP3 PUSH2 0xAE5 JUMP JUMPDEST SWAP2 SWAP1 POP JUMP JUMPDEST PUSH0 PUSH8 0xFFFFFFFFFFFFFFFF DUP3 GT ISZERO PUSH2 0xB4A JUMPI PUSH2 0xB49 PUSH2 0xAB8 JUMP JUMPDEST JUMPDEST PUSH2 0xB53 DUP3 PUSH2 0xA2C JUMP JUMPDEST SWAP1 POP PUSH1 0x20 DUP2 ADD SWAP1 POP SWAP2 SWAP1 POP JUMP JUMPDEST DUP3 DUP2 DUP4 CALLDATACOPY PUSH0 DUP4 DUP4 ADD MSTORE POP POP POP JUMP JUMPDEST PUSH0 PUSH2 0xB80 PUSH2 0xB7B DUP5 PUSH2 0xB30 JUMP JUMPDEST PUSH2 0xB16 JUMP JUMPDEST SWAP1 POP DUP3 DUP2 MSTORE PUSH1 0x20 DUP2 ADD DUP5 DUP5 DUP5 ADD GT ISZERO PUSH2 0xB9C JUMPI PUSH2 0xB9B PUSH2 0xAB4 JUMP JUMPDEST JUMPDEST PUSH2 0xBA7 DUP5 DUP3 DUP6 PUSH2 0xB60 JUMP JUMPDEST POP SWAP4 SWAP3 POP POP POP JUMP JUMPDEST PUSH0 DUP3 PUSH1 0x1F DUP4 ADD SLT PUSH2 0xBC3 JUMPI PUSH2 0xBC2 PUSH2 0xAB0 JUMP JUMPDEST JUMPDEST DUP2 CALLDATALOAD PUSH2 0xBD3 DUP5 DUP3 PUSH1 0x20 DUP7 ADD PUSH2 0xB6E JUMP JUMPDEST SWAP2 POP POP SWAP3 SWAP2 POP POP JUMP JUMPDEST PUSH0 PUSH1 0x20 DUP3 DUP5 SUB SLT ISZERO PUSH2 0xBF1 JUMPI PUSH2 0xBF0 PUSH2 0x91E JUMP JUMPDEST JUMPDEST PUSH0 DUP3 ADD CALLDATALOAD PUSH8 0xFFFFFFFFFFFFFFFF DUP2 GT ISZERO PUSH2 0xC0E JUMPI PUSH2 0xC0D PUSH2 0x922 JUMP JUMPDEST JUMPDEST PUSH2 0xC1A DUP5 DUP3 DUP6 ADD PUSH2 0xBAF JUMP JUMPDEST SWAP2 POP POP SWAP3 SWAP2 POP POP JUMP JUMPDEST PUSH32 0x456C206475656E6F206E6F20707565646520656A656375746172206573746120 PUSH0 DUP3 ADD MSTORE PUSH32 0x66756E63696F6E00000000000000000000000000000000000000000000000000 PUSH1 0x20 DUP3 ADD MSTORE POP JUMP JUMPDEST PUSH0 PUSH2 0xC7D PUSH1 0x27 DUP4 PUSH2 0xA0E JUMP JUMPDEST SWAP2 POP PUSH2 0xC88 DUP3 PUSH2 0xC23 JUMP JUMPDEST PUSH1 0x40 DUP3 ADD SWAP1 POP SWAP2 SWAP1 POP JUMP JUMPDEST PUSH0 PUSH1 0x20 DUP3 ADD SWAP1 POP DUP2 DUP2 SUB PUSH0 DUP4 ADD MSTORE PUSH2 0xCAA DUP2 PUSH2 0xC71 JUMP JUMPDEST SWAP1 POP SWAP2 SWAP1 POP JUMP JUMPDEST PUSH32 0x4D6173636F7461206E6F20657869737465000000000000000000000000000000 PUSH0 DUP3 ADD MSTORE POP JUMP JUMPDEST PUSH0 PUSH2 0xCE5 PUSH1 0x11 DUP4 PUSH2 0xA0E JUMP JUMPDEST SWAP2 POP PUSH2 0xCF0 DUP3 PUSH2 0xCB1 JUMP JUMPDEST PUSH1 0x20 DUP3 ADD SWAP1 POP SWAP2 SWAP1 POP JUMP JUMPDEST PUSH0 PUSH1 0x20 DUP3 ADD SWAP1 POP DUP2 DUP2 SUB PUSH0 DUP4 ADD MSTORE PUSH2 0xD12 DUP2 PUSH2 0xCD9 JUMP JUMPDEST SWAP1 POP SWAP2 SWAP1 POP JUMP JUMPDEST PUSH32 0x4E487B7100000000000000000000000000000000000000000000000000000000 PUSH0 MSTORE PUSH1 0x32 PUSH1 0x4 MSTORE PUSH1 0x24 PUSH0 REVERT JUMPDEST PUSH32 0x4D6173636F74612079612061646F707461646100000000000000000000000000 PUSH0 DUP3 ADD MSTORE POP JUMP JUMPDEST PUSH0 PUSH2 0xD7A PUSH1 0x13 DUP4 PUSH2 0xA0E JUMP JUMPDEST SWAP2 POP PUSH2 0xD85 DUP3 PUSH2 0xD46 JUMP JUMPDEST PUSH1 0x20 DUP3 ADD SWAP1 POP SWAP2 SWAP1 POP JUMP JUMPDEST PUSH0 PUSH1 0x20 DUP3 ADD SWAP1 POP DUP2 DUP2 SUB PUSH0 DUP4 ADD MSTORE PUSH2 0xDA7 DUP2 PUSH2 0xD6E JUMP JUMPDEST SWAP1 POP SWAP2 SWAP1 POP JUMP JUMPDEST PUSH0 PUSH1 0x40 DUP3 ADD SWAP1 POP PUSH2 0xDC1 PUSH0 DUP4 ADD DUP6 PUSH2 0x9DC JUMP JUMPDEST PUSH2 0xDCE PUSH1 0x20 DUP4 ADD DUP5 PUSH2 0x984 JUMP JUMPDEST SWAP4 SWAP3 POP POP POP JUMP JUMPDEST PUSH32 0x4E487B7100000000000000000000000000000000000000000000000000000000 PUSH0 MSTORE PUSH1 0x11 PUSH1 0x4 MSTORE PUSH1 0x24 PUSH0 REVERT JUMPDEST PUSH0 PUSH2 0xE0C DUP3 PUSH2 0x926 JUMP JUMPDEST SWAP2 POP PUSH32 0xFFFFFFFFFFFFFFFFFFFFFFFFFFFFFFFFFFFFFFFFFFFFFFFFFFFFFFFFFFFFFFFF DUP3 SUB PUSH2 0xE3E JUMPI PUSH2 0xE3D PUSH2 0xDD5 JUMP JUMPDEST JUMPDEST PUSH1 0x1 DUP3 ADD SWAP1 POP SWAP2 SWAP1 POP JUMP JUMPDEST PUSH32 0x4E6F206572657320656C2061646F7074616E7465000000000000000000000000 PUSH0 DUP3 ADD MSTORE POP JUMP JUMPDEST PUSH0 PUSH2 0xE7D PUSH1 0x14 DUP4 PUSH2 0xA0E JUMP JUMPDEST SWAP2 POP PUSH2 0xE88 DUP3 PUSH2 0xE49 JUMP JUMPDEST PUSH1 0x20 DUP3 ADD SWAP1 POP SWAP2 SWAP1 POP JUMP JUMPDEST PUSH0 PUSH1 0x20 DUP3 ADD SWAP1 POP DUP2 DUP2 SUB PUSH0 DUP4 ADD MSTORE PUSH2 0xEAA DUP2 PUSH2 0xE71 JUMP JUMPDEST SWAP1 POP SWAP2 SWAP1 POP JUMP JUMPDEST PUSH0 PUSH2 0xEBB DUP3 PUSH2 0x926 JUMP JUMPDEST SWAP2 POP PUSH2 0xEC6 DUP4 PUSH2 0x926 JUMP JUMPDEST SWAP3 POP DUP3 DUP3 ADD SWAP1 POP DUP1 DUP3 GT ISZERO PUSH2 0xEDE JUMPI PUSH2 0xEDD PUSH2 0xDD5 JUMP JUMPDEST JUMPDEST SWAP3 SWAP2 POP POP JUMP JUMPDEST PUSH32 0x5469656D706F206465206465766F6C7563696F6E20657870697261646F000000 PUSH0 DUP3 ADD MSTORE POP JUMP JUMPDEST PUSH0 PUSH2 0xF18 PUSH1 0x1D DUP4 PUSH2 0xA0E JUMP JUMPDEST SWAP2 POP PUSH2 0xF23 DUP3 PUSH2 0xEE4 JUMP JUMPDEST PUSH1 0x20 DUP3 ADD SWAP1 POP SWAP2 SWAP1 POP JUMP JUMPDEST PUSH0 PUSH1 0x20 DUP3 ADD SWAP1 POP DUP2 DUP2 SUB PUSH0 DUP4 ADD MSTORE PUSH2 0xF45 DUP2 PUSH2 0xF0C JUMP JUMPDEST SWAP1 POP SWAP2 SWAP1 POP JUMP JUMPDEST PUSH32 0x4E487B7100000000000000000000000000000000000000000000000000000000 PUSH0 MSTORE PUSH1 0x22 PUSH1 0x4 MSTORE PUSH1 0x24 PUSH0 REVERT JUMPDEST PUSH0 PUSH1 0x2 DUP3 DIV SWAP1 POP PUSH1 0x1 DUP3 AND DUP1 PUSH2 0xF90 JUMPI PUSH1 0x7F DUP3 AND SWAP2 POP JUMPDEST PUSH1 0x20 DUP3 LT DUP2 SUB PUSH2 0xFA3 JUMPI PUSH2 0xFA2 PUSH2 0xF4C JUMP JUMPDEST JUMPDEST POP SWAP2 SWAP1 POP JUMP JUMPDEST PUSH32 0x536F6C6F20656C206475656E6F20707565646520656A65637574617220657374 PUSH0 DUP3 ADD MSTORE PUSH32 0x612066756E63696F6E0000000000000000000000000000000000000000000000 PUSH1 0x20 DUP3 ADD MSTORE POP JUMP JUMPDEST PUSH0 PUSH2 0x1003 PUSH1 0x29 DUP4 PUSH2 0xA0E JUMP JUMPDEST SWAP2 POP PUSH2 0x100E DUP3 PUSH2 0xFA9 JUMP JUMPDEST PUSH1 0x40 DUP3 ADD SWAP1 POP SWAP2 SWAP1 POP JUMP JUMPDEST PUSH0 PUSH1 0x20 DUP3 ADD SWAP1 POP DUP2 DUP2 SUB PUSH0 DUP4 ADD MSTORE PUSH2 0x1030 DUP2 PUSH2 0xFF7 JUMP JUMPDEST SWAP1 POP SWAP2 SWAP1 POP JUMP JUMPDEST PUSH0 DUP2 SWAP1 POP DUP2 PUSH0 MSTORE PUSH1 0x20 PUSH0 KECCAK256 SWAP1 POP SWAP2 SWAP1 POP JUMP JUMPDEST PUSH0 PUSH1 0x20 PUSH1 0x1F DUP4 ADD DIV SWAP1 POP SWAP2 SWAP1 POP JUMP JUMPDEST PUSH0 DUP3 DUP3 SHL SWAP1 POP SWAP3 SWAP2 POP POP JUMP JUMPDEST PUSH0 PUSH1 0x8 DUP4 MUL PUSH2 0x1093 PUSH32 0xFFFFFFFFFFFFFFFFFFFFFFFFFFFFFFFFFFFFFFFFFFFFFFFFFFFFFFFFFFFFFFFF DUP3 PUSH2 0x1058 JUMP JUMPDEST PUSH2 0x109D DUP7 DUP4 PUSH2 0x1058 JUMP JUMPDEST SWAP6 POP DUP1 NOT DUP5 AND SWAP4 POP DUP1 DUP7 AND DUP5 OR SWAP3 POP POP POP SWAP4 SWAP3 POP POP POP JUMP JUMPDEST PUSH0 DUP2 SWAP1 POP SWAP2 SWAP1 POP JUMP JUMPDEST PUSH0 PUSH2 0x10D8 PUSH2 0x10D3 PUSH2 0x10CE DUP5 PUSH2 0x926 JUMP JUMPDEST PUSH2 0x10B5 JUMP JUMPDEST PUSH2 0x926 JUMP JUMPDEST SWAP1 POP SWAP2 SWAP1 POP JUMP JUMPDEST PUSH0 DUP2 SWAP1 POP SWAP2 SWAP1 POP JUMP JUMPDEST PUSH2 0x10F1 DUP4 PUSH2 0x10BE JUMP JUMPDEST PUSH2 0x1105 PUSH2 0x10FD DUP3 PUSH2 0x10DF JUMP JUMPDEST DUP5 DUP5 SLOAD PUSH2 0x1064 JUMP JUMPDEST DUP3 SSTORE POP POP POP POP JUMP JUMPDEST PUSH0 PUSH0 SWAP1 POP SWAP1 JUMP JUMPDEST PUSH2 0x111C PUSH2 0x110D JUMP JUMPDEST PUSH2 0x1127 DUP2 DUP5 DUP5 PUSH2 0x10E8 JUMP JUMPDEST POP POP POP JUMP JUMPDEST JUMPDEST DUP2 DUP2 LT ISZERO PUSH2 0x114A JUMPI PUSH2 0x113F PUSH0 DUP3 PUSH2 0x1114 JUMP JUMPDEST PUSH1 0x1 DUP2 ADD SWAP1 POP PUSH2 0x112D JUMP JUMPDEST POP POP JUMP JUMPDEST PUSH1 0x1F DUP3 GT ISZERO PUSH2 0x118F JUMPI PUSH2 0x1160 DUP2 PUSH2 0x1037 JUMP JUMPDEST PUSH2 0x1169 DUP5 PUSH2 0x1049 JUMP JUMPDEST DUP2 ADD PUSH1 0x20 DUP6 LT ISZERO PUSH2 0x1178 JUMPI DUP2 SWAP1 POP JUMPDEST PUSH2 0x118C PUSH2 0x1184 DUP6 PUSH2 0x1049 JUMP JUMPDEST DUP4 ADD DUP3 PUSH2 0x112C JUMP JUMPDEST POP POP JUMPDEST POP POP POP JUMP JUMPDEST PUSH0 DUP3 DUP3 SHR SWAP1 POP SWAP3 SWAP2 POP POP JUMP JUMPDEST PUSH0 PUSH2 0x11AF PUSH0 NOT DUP5 PUSH1 0x8 MUL PUSH2 0x1194 JUMP JUMPDEST NOT DUP1 DUP4 AND SWAP2 POP POP SWAP3 SWAP2 POP POP JUMP JUMPDEST PUSH0 PUSH2 0x11C7 DUP4 DUP4 PUSH2 0x11A0 JUMP JUMPDEST SWAP2 POP DUP3 PUSH1 0x2 MUL DUP3 OR SWAP1 POP SWAP3 SWAP2 POP POP JUMP JUMPDEST PUSH2 0x11E0 DUP3 PUSH2 0xA04 JUMP JUMPDEST PUSH8 0xFFFFFFFFFFFFFFFF DUP2 GT ISZERO PUSH2 0x11F9 JUMPI PUSH2 0x11F8 PUSH2 0xAB8 JUMP JUMPDEST JUMPDEST PUSH2 0x1203 DUP3 SLOAD PUSH2 0xF79 JUMP JUMPDEST PUSH2 0x120E DUP3 DUP3 DUP6 PUSH2 0x114E JUMP JUMPDEST PUSH0 PUSH1 0x20 SWAP1 POP PUSH1 0x1F DUP4 GT PUSH1 0x1 DUP2 EQ PUSH2 0x123F JUMPI PUSH0 DUP5 ISZERO PUSH2 0x122D JUMPI DUP3 DUP8 ADD MLOAD SWAP1 POP JUMPDEST PUSH2 0x1237 DUP6 DUP3 PUSH2 0x11BC JUMP JUMPDEST DUP7 SSTORE POP PUSH2 0x129E JUMP JUMPDEST PUSH1 0x1F NOT DUP5 AND PUSH2 0x124D DUP7 PUSH2 0x1037 JUMP JUMPDEST PUSH0 JUMPDEST DUP3 DUP2 LT ISZERO PUSH2 0x1274 JUMPI DUP5 DUP10 ADD MLOAD DUP3 SSTORE PUSH1 0x1 DUP3 ADD SWAP2 POP PUSH1 0x20 DUP6 ADD SWAP5 POP PUSH1 0x20 DUP2 ADD SWAP1 POP PUSH2 0x124F JUMP JUMPDEST DUP7 DUP4 LT ISZERO PUSH2 0x1291 JUMPI DUP5 DUP10 ADD MLOAD PUSH2 0x128D PUSH1 0x1F DUP10 AND DUP3 PUSH2 0x11A0 JUMP JUMPDEST DUP4 SSTORE POP JUMPDEST PUSH1 0x1 PUSH1 0x2 DUP9 MUL ADD DUP9 SSTORE POP POP POP JUMPDEST POP POP POP POP POP POP JUMP JUMPDEST PUSH0 PUSH2 0x12B0 DUP3 PUSH2 0x926 JUMP JUMPDEST SWAP2 POP PUSH2 0x12BB DUP4 PUSH2 0x926 JUMP JUMPDEST SWAP3 POP DUP3 DUP3 SUB SWAP1 POP DUP2 DUP2 GT ISZERO PUSH2 0x12D3 JUMPI PUSH2 0x12D2 PUSH2 0xDD5 JUMP JUMPDEST JUMPDEST SWAP3 SWAP2 POP POP JUMP JUMPDEST PUSH0 PUSH1 0x40 DUP3 ADD SWAP1 POP DUP2 DUP2 SUB PUSH0 DUP4 ADD MSTORE PUSH2 0x12F1 DUP2 DUP6 PUSH2 0xA3C JUMP JUMPDEST SWAP1 POP PUSH2 0x1300 PUSH1 0x20 DUP4 ADD DUP5 PUSH2 0x984 JUMP JUMPDEST SWAP4 SWAP3 POP POP POP JUMP INVALID LOG2 PUSH5 0x6970667358 0x22 SLT KECCAK256 PUSH4 0xDDEEA972 DUP15 GASPRICE SWAP16 EXTDELEGATECALL ADDMOD BALANCE PUSH2 0x30AA PUSH12 0xBE2D25328B0C36B6D0CF725D PUSH13 0x4AD3D86264736F6C634300081E STOP CALLER "
				},
				"gasEstimates": {
					"creation": {
						"codeDepositCost": "985000",
						"executionCost": "25284",
						"totalCost": "1010284"
					},
					"external": {
						"adoptPet(uint256)": "infinite",
						"countAdopted()": "infinite",
						"owner()": "2530",
						"pets(uint256)": "infinite",
						"registerPet(string)": "infinite",
						"returnPet(uint256)": "infinite"
					}
				},
				"methodIdentifiers": {
					"adoptPet(uint256)": "19b81577",
					"countAdopted()": "680f6522",
					"owner()": "8da5cb5b",
					"pets(uint256)": "cfb869bf",
					"registerPet(string)": "e0ce2aa9",
					"returnPet(uint256)": "bdb92e8e"
				}
			},
			"storageLayout": {
				"storage": [
					{
						"astId": 12,
						"contract": "contracts/SimplePetAdoption.sol:SimplePetAdoption",
						"label": "pets",
						"offset": 0,
						"slot": "0",
						"type": "t_array(t_struct(Pet)8_storage)dyn_storage"
					},
					{
						"astId": 32,
						"contract": "contracts/SimplePetAdoption.sol:SimplePetAdoption",
						"label": "owner",
						"offset": 0,
						"slot": "1",
						"type": "t_address"
					}
				],
				"types": {
					"t_address": {
						"encoding": "inplace",
						"label": "address",
						"numberOfBytes": "20"
					},
					"t_array(t_struct(Pet)8_storage)dyn_storage": {
						"base": "t_struct(Pet)8_storage",
						"encoding": "dynamic_array",
						"label": "struct SimplePetAdoption.Pet[]",
						"numberOfBytes": "32"
					},
					"t_string_storage": {
						"encoding": "bytes",
						"label": "string",
						"numberOfBytes": "32"
					},
					"t_struct(Pet)8_storage": {
						"encoding": "inplace",
						"label": "struct SimplePetAdoption.Pet",
						"members": [
							{
								"astId": 3,
								"contract": "contracts/SimplePetAdoption.sol:SimplePetAdoption",
								"label": "name",
								"offset": 0,
								"slot": "0",
								"type": "t_string_storage"
							},
							{
								"astId": 5,
								"contract": "contracts/SimplePetAdoption.sol:SimplePetAdoption",
								"label": "adopter",
								"offset": 0,
								"slot": "1",
								"type": "t_address"
							},
							{
								"astId": 7,
								"contract": "contracts/SimplePetAdoption.sol:SimplePetAdoption",
								"label": "timeAdopted",
								"offset": 0,
								"slot": "2",
								"type": "t_uint256"
							}
						],
						"numberOfBytes": "96"
					},
					"t_uint256": {
						"encoding": "inplace",
						"label": "uint256",
						"numberOfBytes": "32"
					}
				}
			},
			"userdoc": {
				"kind": "user",
				"methods": {},
				"version": 1
			}
		}
	}
}